:040000000DEF00F010
:0400080043EF08F0CA
:06001800FF0090EF08F06C
:101000000000B2A406EF08F008EF08F01EEF08F0A9
:10101000B2B00DEF08F010EF08F0010E11EF08F07C
:10102000000E0F6E0E50B16E600037F0B0FF0FB0C3
:1010300002D0B29001D0B28023EF08F00E50B16E12
:10104000600037F0B0FF120005C00DF006C00EF0D2
:1010500001EC08F003500410D8B431EF08F033EF7E
:1010600008F040EF08F002D840EF08F00500FA6EF3
:101070000350FD6E0450FE6EF850FF6EFA501200E1
:101080003901A49112006F00E8FF10F06F00ECFF2F
:1010900011F0390194A14FEF08F051EF08F05AEF29
:1010A00008F0A4A156EF08F058EF08F05AEF08F046
:1010B00024EC08F0600047F0FBFF600043F0FAFF0B
:1010C0001100126E1250D8B468EF08F06AEF08F001
:1010D00075EF08F0BB8A030EE82EFED700D0BB9A4E
:1010E000030EE82EFED77DEF08F0BB8A00D000D0BB
:1010F0000000BB9A040EE82EFED71200136E146A8D
:101100001350800B61EC08F0D8901336142A070EA8
:1011100014648DEF08F08FEF08F080EF08F01200F4
:1011200000EE01F00C0EEE6AE806FDE1080ED56E49
:10113000000ED66E000ED76E000EF86E0001A1EF05
:1011400008F0C39ABB9A000E156E800E166E800EC4
:10115000AEEC08F0A3EF08F00DEF00F0176E15509D
:101160007EEC08F017507EEC08F016507EEC08F08C
:041170001200120057
:020000040030CA
:0A0000008FFFF7FF9FFFFFFFFFFFD8
:00000001FF
