:040000000DEF00F010
:0400080088EF08F085
:06001800FF00D5EF08F027
:101000000000C39ABB9A000E096E000E0A6EFF0E16
:10101000E6EC08F0F1EC08F0520E0D6E2B0E0C6EA3
:10102000000EE82EFED70C2EFCD70D2EFAD700D0DE
:10103000FF0E096E000E0A6E000EE6EC08F0F1ECF1
:1010400008F0520E0D6E2B0E0C6E000EE82EFED721
:101050000C2EFCD70D2EFAD700D0000E096EFF0E15
:101060000A6E000EE6EC08F0F1EC08F0520E0D6E80
:101070002B0E0C6E000EE82EFED70C2EFCD70D2E7C
:10108000FAD700D003EF08F00DEF00F0B2A44BEF59
:1010900008F04DEF08F063EF08F0B2B052EF08F03F
:1010A00055EF08F0010E56EF08F0000E036E0250E7
:1010B000B16E600007F0B0FF03B002D0B29001D073
:1010C000B28068EF08F00250B16E600007F0B0FF28
:1010D000120012C001F013C002F046EC08F01050EC
:1010E0001110D8B476EF08F078EF08F085EF08F02B
:1010F00002D885EF08F00500FA6E1050FD6E115011
:10110000FE6EF850FF6EFA5012003901A4911200E1
:101110006F00E8FF04F06F00ECFF05F0390194A1C7
:1011200094EF08F096EF08F09FEF08F0A4A19BEF72
:1011300008F09DEF08F09FEF08F069EC08F0600000
:1011400017F0FBFF600013F0FAFF1100066E065067
:10115000D8B4ADEF08F0AFEF08F0BAEF08F0BB8AF3
:10116000030EE82EFED700D0BB9A030EE82EFED762
:10117000C2EF08F0BB8A00D000D00000BB9A040E7A
:10118000E82EFED71200076E086A0750800BA6EC07
:1011900008F0D8900736082A070E0864D2EF08F046
:1011A000D4EF08F0C5EF08F0120000EE0EF00C0EC0
:1011B000EE6AE806FDE1080ED56E000ED66E000E52
:1011C000D76E000EF86E000101EF08F00B6E0950AB
:1011D000C3EC08F00B50C3EC08F00A50C3EC08F065
:1011E0001200BB9AB60E00D000D0E82EFCD700D07B
:0811F00000D000D01200120033
:020000040030CA
:0A0000008FFFF7FF9FFFFFFFFFFFD8
:00000001FF
