:040000000DEF00F010
:04000800D2EF0AF039
:06001800FF00BAEF0CF03E
:1010000000006400640000000064004010504D4582
:101010004C414E474500455445494E5400524F55AA
:101020004745005645525400424C45550000A0EC3F
:101030000CF064EC0DF0000E036E000E5DEC0BF096
:10104000630044F909F0630040F90AF0630048F9CD
:101050000BF009500A5CD8B030EF08F032EF08F01E
:1010600049EF08F009500B5CD8B039EF08F03BEFBE
:1010700008F049EF08F00950D8B441EF08F043EF09
:1010800008F049EF08F01D0E036E48EC0CF0ABEFD2
:1010900008F00A50095CD8B050EF08F052EF08F0A1
:1010A00069EF08F00A500B5CD8B059EF08F05BEF1D
:1010B00008F069EF08F00A50D8B461EF08F063EF68
:1010C00008F069EF08F0230E036E48EC0CF0ABEF6C
:1010D00008F00B50095CD8B070EF08F072EF08F020
:1010E00089EF08F00B500A5CD8B079EF08F07BEF7D
:1010F00008F089EF08F00B50D8B481EF08F083EFC7
:1011000008F089EF08F0280E036E48EC0CF0ABEF06
:1011100008F00950D8A48FEF08F091EF08F0A7EF7E
:1011200008F00A50D8A497EF08F099EF08F0A7EF5D
:1011300008F00B50D8A49FEF08F0A1EF08F0A7EF3C
:1011400008F0160E036E48EC0CF0ABEF08F00E0E34
:10115000036E48EC0CF01200040E166E400E156E75
:10116000260EE82EFED7152EFCD7162EFAD700D065
:10117000010E196E1A6ACAB2C0EF08F0C2EF08F089
:10118000C5EF08F0196AD5EF08F0D00E156ECA0E3B
:10119000E82EFED7152EFCD71A2A630E1A64D3EF59
:1011A00008F0D5EF08F0BBEF08F01950D8B4DBEF2A
:1011B00008F0DDEF08F0E1EF08F077EC0AF03BEF24
:1011C00009F01B6A1C6A1C50030D6F00CCFF15F060
:1011D0006F00D0FF16F01B50240D510EF324176E34
:1011E0000E0EF420186E15501724D96E16501820C4
:1011F000DA6EDF6A1C50030D6F00CCFF15F06F0034
:10120000D0FF16F01B50240D500EF324176E0E0E57
:10121000F420186E15501724D96E16501820DA6E67
:10122000640EDF6E1C50030D6F00CCFF15F06F00D5
:10123000D0FF16F01B50240D520EF324176E0E0E25
:10124000F420186E15501724D96E16501820DA6E37
:10125000DF6A1C2A0B0E1C6430EF09F032EF09F034
:10126000E3EF08F01B2A0B0E1B6439EF09F03BEF8C
:1012700009F0E2EF08F016EC0AF017EC08F01200A3
:10128000040E166E400E156E260EE82EFED7152E95
:10129000FCD7162EFAD700D0196A1A6A1A50030D15
:1012A0006F00CCFF15F06F00D0FF16F01950240D21
:1012B000510EF324176E0E0EF420186E15501724DD
:1012C000D96E16501820DA6E640EDF6E1A50030DB8
:1012D0006F00CCFF15F06F00D0FF16F01950240DF1
:1012E000500EF324176E0E0EF420186E15501724AE
:1012F000D96E16501820DA6EDF6A1A50030D6F008F
:10130000CCFF15F06F00D0FF16F01950240D520ECF
:10131000F324176E0E0EF420186E15501724D96E94
:1013200016501820DA6EDF6A1A2A0B0E1A649BEF29
:1013300009F09DEF09F04EEF09F0192A0B0E196420
:10134000A4EF09F0A6EF09F04DEF09F016EC0AF052
:1013500017EC08F01200040E166E400E156E260EE5
:10136000E82EFED7152EFCD7162EFAD700D0196A14
:101370001A6A1A50030D6F00CCFF15F06F00D0FFF2
:1013800016F01950240D510EF324176E0E0EF42092
:10139000186E15501724D96E16501820DA6EDF6AB1
:1013A0001A50030D6F00CCFF15F06F00D0FF16F040
:1013B0001950240D500EF324176E0E0EF420186EE3
:1013C00015501724D96E16501820DA6EDF6A1A509D
:1013D000030D6F00CCFF15F06F00D0FF16F0195011
:1013E000240D520EF324176E0E0EF420186E1550B5
:1013F0001724D96E16501820DA6E640EDF6E1A2A82
:101400000B0E1A6406EF0AF008EF0AF0B9EF09F0C4
:10141000192A0B0E19640FEF0AF011EF0AF0B8EF5A
:1014200009F016EC0AF017EC08F01200136A136AC0
:10143000146A1450030D6F00CCFF07F06F00D0FF4B
:1014400008F01350240D500EF324096E0E0EF420F4
:101450000A6E07500924D96E08500A20DA6EDF5050
:10146000046E1450030D6F00CCFF0BF06F00D0FF23
:101470000CF01350240D520EF3240D6E0E0EF420BA
:101480000E6E0B500D24D96E0C500E20DA6EDF500C
:10149000056E1450030D6F00CCFF0FF06F00D0FFEE
:1014A00010F01350240D510EF324116E0E0EF42083
:1014B000126E0F501124D96E10501220DA6EDF50C8
:1014C00059EC0DF0142A0B0E146469EF0AF06BEF5F
:1014D0000AF019EF0AF0132A0B0E136472EF0AF0E8
:1014E00074EF0AF018EF0AF06FEC0DF01200056AC5
:1014F000056A066A0650030D6F00CCFF01F06F000D
:10150000D0FF02F00550240D510EF324036E0E0E91
:10151000F420046E01500324D96E02500420DA6EC8
:10152000DF6A0650030D6F00CCFF01F06F00D0FFA3
:1015300002F00550240D500EF324036E0E0EF4201D
:10154000046E01500324D96E02500420DA6EDF6A63
:101550000650030D6F00CCFF01F06F00D0FF02F0CA
:101560000550240D520EF324036E0E0EF420046E6B
:1015700001500324D96E02500420DA6EDF6A062A75
:101580000B0E0664C6EF0AF0C8EF0AF07AEF0AF015
:10159000052A0B0E0564CFEF0AF0D1EF0AF079EFC0
:1015A0000AF012006F00E8FF1DF06F00ECFF1EF064
:1015B0006F00D8FF1FF06F00DCFF20F06F00E0FF2E
:1015C00021F06F00D4FF22F0390190AFEAEF0AF06A
:1015D000ECEF0AF0F7EF0AF0A0AFF1EF0AF0F3EF4B
:1015E0000AF0F7EF0AF0EDEC0BF007EF0BF094A127
:1015F000FCEF0AF0FEEF0AF007EF0BF0A4A103EFF7
:101600000BF005EF0BF007EF0BF02AEC0CF060008D
:101610008BF0F5FF600087F0F8FF600083F0F7FFC4
:1016200060007FF0F6FF60007BF0FBFF600077F06A
:10163000FAFF1100BA6ABB6ABC6A3A01426B526B8C
:10164000626BFE0EC26EDC0EC36EC46AF00E406F9B
:10165000DC0E506F606B416B516B616B816B43694A
:1016600053696369446954696469080E846F5A6BED
:101670005B6B6A6B6B6B0E0E456F466B476B556B06
:10168000566B576B656B666B676B856B866B876B91
:10169000620E236E1B0E246E9AEC0DF0600E236E0C
:1016A0001B0E246E95EC0DF05E0E236E1B0E246E49
:1016B00090EC0DF03901908F1200086E0A0EF66E54
:1016C000100EF76E000EF86E09006F00D4FF04F0E4
:1016D00009006F00D4FF05F009006F00D4FF06F089
:1016E0000A006F00D4FF07F0030E08647AEF0BF0D6
:1016F0007CEF0BF07EEF0BF0030E086E0850040F2A
:10170000D96EDA6ADF50032480093CEC0DF0120038
:10171000B2A48DEF0BF08FEF0BF0A5EF0BF0B2B092
:1017200094EF0BF097EF0BF0010E98EF0BF0000E1B
:10173000036E0250B16E600007F0B0FF03B002D03C
:10174000B29001D0B280AAEF0BF00250B16E6000EF
:1017500007F0B0FF120079EC0DF0980E236E170E13
:10176000246E8BEC0DF0580E236E110E246E9AEC45
:101770000DF0560E236E130E246E95EC0DF0800EB8
:10178000236E120E246E90EC0DF0D28EC39ABB9A8B
:10179000C8EF0BF00DEF00F03550016E3650026EC1
:1017A000354A362A025009E1150E015CD8A0DBEF5C
:1017B0000BF0DDEF0BF0ECEF0BF0000E366E000ED1
:1017C000356E3950D8B4E7EF0BF0EAEF0BF0010EAD
:1017D000EBEF0BF0000E396E12003A0147A3F3EF66
:1017E0000BF0F5EF0BF0F7EF0BF002EC0DF03A0118
:1017F00047A5FDEF0BF0FFEF0BF001EF0CF0EAEC6B
:101800000CF03A0147A707EF0CF009EF0CF00BEFD3
:101810000CF0D2EC0CF01200B290B36AB46A040E71
:10182000B56EF30EB16EE30EB06EB150236EB050D4
:10183000376E23C038F05C0E276E1B0E286E000E2C
:10184000256E000E266E3901A4919481A493050E95
:10185000B26E120037C001F038C002F088EC0BF015
:1018600027502810D8B437EF0CF039EF0CF045EFC3
:101870000CF002D845EF0CF00500FA6E2750FD6E13
:101880002850FE6EFF6AFA5012003901A49112002E
:1018900055EF0CF060000FF0F6FF100EF76EF86ACF
:1018A0000800F5502CEC0DF0032A60000FF0F6FF55
:1018B000100EF76EF86A0800F5500009D8A463EF1F
:1018C0000CF065EF0CF04AEF0CF01200D29A3901DF
:1018D000A191D280000E236E000E246EA9EC0DF0B3
:1018E0003901A591D282000E236E000E246EA4EC65
:1018F0000DF03901A79BD284000E236E000E246EDA
:101900009FEC0DF01200016E0150D8B48AEF0CF07C
:101910008CEF0CF097EF0CF0BB8A030EE82EFED78D
:1019200000D0BB9A030EE82EFED79FEF0CF0BB8AC7
:1019300000D000D00000BB9A040EE82EFED71200A3
:10194000BB92BB90020E056EA00E046E920EE82EA6
:10195000FED7042EFCD7052EFAD700D0380E3CEC6B
:101960000DF00C0E3CEC0DF0060E3CEC0DF064ECB2
:101970000DF0120003EE50F210EEB0F1EE6AE550F9
:10198000E150FCE1E250FAE1396A386A376A366AB6
:10199000356A080ED56E000ED66E000ED76E0001A9
:1019A000ABEF0BF02F503010D8B4D9EF0CF0DBEFC9
:1019B0000CF0E7EF0CF002D8E7EF0CF00500FA6E40
:1019C0002F50FD6E3050FE6EFF6AFA5012003A0141
:1019D0004797120031503210D8B4F1EF0CF0F3EF0A
:1019E0000CF0FFEF0CF002D8FFEF0CF00500FA6EE0
:1019F0003150FD6E3250FE6EFF6AFA5012003A010D
:101A00004795120033503410D8B409EF0DF00BEFA6
:101A10000DF017EF0DF002D817EF0DF00500FA6E7C
:101A20003350FD6E3450FE6EFF6AFA5012003A01D8
:101A300047931200026E036A0250800B83EC0CF095
:101A4000D8900236032A070E036429EF0DF02BEF1E
:101A50000DF01CEF0DF01200026EBB8260000BF067
:101A6000BCFF4BEC0DF0150E016EC60EE82EFED736
:101A7000012EFCD700D01200026EBB9260000BF06A
:101A8000BCFF4BEC0DF02A0E016E8E0EE82EFED739
:101A9000012EFCD71200BB80050EE82EFED70000F9
:101AA000BB90E40E00D000D0E82EFCD700D000D0D0
:101AB0001200066E04501AEC0DF006501AEC0DF0F0
:101AC00005501AEC0DF01200010E3CEC0DF02A0E40
:101AD000036E8E0EE82EFED7032EFCD71200BB9AA3
:101AE000B60E00D000D0E82EFCD700D000D000D039
:101AF000120082EC0DF01AEC0BF00CEC0CF066EC22
:101B00000CF01200600E3901D96FDB6BDD6B080E33
:101B1000DF6FDE6B120023C027F024C028F0120014
:101B200023C02FF024C030F0120023C031F024C0B5
:101B300032F0120023C033F024C034F0120023C06E
:101B400029F024C02AF0120023C02BF024C02CF06E
:101B5000120023C02DF024C02EF01200120012003B
:041B6000120012005D
:020000040030CA
:0A0000008FFFF7FF9FFFFFFFFFFFD8
:00000001FF
