:040000000DEF00F010
:0400080079EF0AF092
:06001800FF0049EF0DF0AE
:101000000000640064000000006400401050312EB5
:1010100049434C454420322E4D657375726500433B
:101020006F756C6575723A20524F554745004D6596
:101030007375726520636F7572616E7400436F75AE
:101040006C6575723A205645525400436F756C6555
:1010500075723A20424C455500312E5220322E47AF
:1010600020332E4200436F7572616E743A004368FC
:0B1070006F69783A004C45443A0000DC
:10107C0014EC0DF02CEC0EF0AEEF08F0000E626FDD
:10108C00000E7BEC0BF06E0E0001626F7DEC0CF031
:10109C00000E0001626F010E7BEC0BF00E0E0001D6
:1010AC00626F7DEC0CF0D8EF08F0000E626F000E52
:1010BC007BEC0BF0750E0001626F7DEC0CF0000EFA
:1010CC000001626F010E7BEC0BF0590E0001626F98
:1010DC007DEC0CF0D8EF08F0000E626F000E7BEC8C
:1010EC000BF02E0E0001626F7DEC0CF0D8EF08F0C7
:1010FC00000E626F000E7BEC0BF01F0E0001626F96
:10110C007DEC0CF0D8EF08F0000E626F000E7BEC5B
:10111C000BF03D0E0001626F7DEC0CF0D8EF08F087
:10112C00000E626F000E7BEC0BF04B0E0001626F39
:10113C007DEC0CF0D8EF08F0000E626F000E7BEC2B
:10114C000BF0650E0001626F7DEC0CF0D8EF08F02F
:10115C003D500001686F696B6951000AD8B4B9EF52
:10116C0008F0D8EF08F06851000AD8B444EF08F042
:10117C00010AD8B45BEF08F0030AD8B472EF08F098
:10118C00010AD8B47EEF08F0070AD8B48AEF08F049
:10119C00010AD8B496EF08F0030AD8B4A2EF08F00D
:1011AC00D8EF08F012002FEC0DF044EC0EF03EEFEF
:1011BC0009F0000E036E000EA8EC0BF06E0E036E21
:1011CC00D9EC0CF0000E036E010EA8EC0BF00E0E19
:1011DC00036ED9EC0CF067EF09F0000E036E000EF5
:1011EC00A8EC0BF0750E036ED9EC0CF0000E036E30
:1011FC00010EA8EC0BF0590E036ED9EC0CF067EF56
:10120C0009F0000E036E000EA8EC0BF02E0E036E10
:10121C00D9EC0CF067EF09F0000E036E000EA8EC91
:10122C000BF01F0E036ED9EC0CF067EF09F0000EFB
:10123C00036E000EA8EC0BF03D0E036ED9EC0CF017
:10124C0067EF09F0000E036E000EA8EC0BF04B0ECE
:10125C00036ED9EC0CF067EF09F0000E036E000E74
:10126C00A8EC0BF0650E036ED9EC0CF067EF09F0EF
:10127C003D50096E0A6A0A50000AD8B448EF09F0CA
:10128C0067EF09F00950000AD8B4DFEF08F0010A43
:10129C00D8B4F3EF08F0030AD8B407EF09F0010A49
:1012AC00D8B412EF09F0070AD8B41DEF09F0010AFF
:1012BC00D8B428EF09F0030AD8B433EF09F067EF7C
:1012CC0009F012001B6E1C6A1C6A1D6A1D50030D6E
:1012DC006F00CCFF17F06F00D0FF18F01C50240DDE
:1012EC006B0EF324196E000EF4201A6E175019248D
:1012FC00D96E18501A20DA6E60006FF0DFFF1D50A7
:10130C00030D6F00CCFF17F06F00D0FF18F01C50CE
:10131C00240D6A0EF324196E000EF4201A6E175069
:10132C001924D96E18501A20DA6E600057F0DFFFBE
:10133C001D50030D6F00CCFF17F06F00D0FF18F09D
:10134C001C50240D6C0EF324196E000EF4201A6E32
:10135C0017501924D96E18501A20DA6E60005BF001
:10136C00DFFF1D2A0B0E1D64BEEF09F0C0EF09F064
:10137C006CEF09F01C2A0B0E1C64C7EF09F0C9EFC7
:10138C0009F06BEF09F0CCEC09F01200136A136A48
:10139C00146A1450030D6F00CCFF07F06F00D0FFE0
:1013AC0008F01350240D6A0EF324096E000EF4207D
:1013BC000A6E07500924D96E08500A20DA6EDF50E5
:1013CC00046E1450030D6F00CCFF0BF06F00D0FFB8
:1013DC000CF01350240D6C0EF3240D6E000EF42043
:1013EC000E6E0B500D24D96E0C500E20DA6EDF50A1
:1013FC00056E1450030D6F00CCFF0FF06F00D0FF83
:10140C0010F01350240D6B0EF324116E000EF4200B
:10141C00126E0F501124D96E10501220DA6EDF505C
:10142C0039EC0EF0142A0B0E14641FEF0AF021EFA6
:10143C000AF0CFEF09F0132A0B0E136428EF0AF011
:10144C002AEF0AF0CEEF09F04FEC0EF01200040E6A
:10145C000C6E400E0B6E260EE82EFED70B2EFCD714
:10146C000C2EFAD700D03D04D8A43FEF0AF041EF80
:10147C000AF045EF0AF0030E3D6E76EF0AF0030E0C
:10148C003D18D8A44CEF0AF04EEF0AF052EF0AF0D8
:10149C00040E3D6E76EF0AF0040E3D18D8A459EFF9
:1014AC000AF05BEF0AF05FEF0AF0050E3D6E76EF87
:1014BC000AF0050E3D18D8A466EF0AF068EF0AF0A2
:1014CC006AEF0AF041EF0AF03D50D8A470EF0AF031
:1014DC0072EF0AF076EF0AF0020E3D6E76EF0AF02C
:1014EC00D9EC08F012006F00E8FF22F06F00ECFF5F
:1014FC0023F06F00D8FF24F06F00DCFF25F06F00A5
:10150C00E0FF26F06F00D4FF27F0390190AF91EF88
:10151C000AF093EF0AF09EEF0AF0A0AF98EF0AF0F2
:10152C009AEF0AF09EEF0AF09CEC0CF0AEEF0AF08A
:10153C0094A1A3EF0AF0A5EF0AF0AEEF0AF0A4A174
:10154C00AAEF0AF0ACEF0AF0AEEF0AF0BBEC0CF02D
:10155C0060009FF0F5FF60009BF0F8FF600097F0D3
:10156C00F7FF600093F0F6FF60008FF0FBFF600068
:10157C008BF0FAFF1100BA6ABB6ABC6A3A01426B83
:10158C00526B626BFE0EC26EDC0EC36EC46AF00E42
:10159C00406FDC0E506F606B416B516B616B816BFC
:1015AC00436953696369446954696469080E846FBB
:1015BC005A6B5B6B6A6B6B6B0E0E456F466B476BB6
:1015CC00556B566B576B656B666B676B856B866B78
:1015DC00876B220E0001606F1D0E616F7AEC0EF0AE
:1015EC00200E0001606F1D0E616F75EC0EF01E0E6B
:1015FC000001606F1D0E616F70EC0EF03901908F61
:10160C00120028EF0BF0000E156E000E166E640E15
:10161C0068EC09F049EF0BF0640E156E000E166EB7
:10162C00000E68EC09F049EF0BF0000E156E640E1D
:10163C00166E000E68EC09F049EF0BF0060E3D6ECD
:10164C0049EF0BF03D501E6E1F6A1F50000AD8B4B4
:10165C0032EF0BF049EF0BF01E50020AD8B424EF16
:10166C000BF0010AD8B409EF0BF0070AD8B412EF4B
:10167C000BF0010AD8B41BEF0BF0030AD8B424EF1B
:10168C000BF049EF0BF01200040E0C6E400E0B6EBB
:10169C00260EE82EFED70B2EFCD70C2EFAD700D038
:1016AC005FEF0BF0010E3D6E78EF0BF03D6A78EFBB
:1016BC000BF03D500B6E0C6A0C50000AD8B469EF5D
:1016CC000BF05CEF0BF00B50000AD8B458EF0BF09A
:1016DC00010AD8B45CEF0BF0030AD8B45CEF0BF042
:1016EC005CEF0BF0D9EC08F012000001676F0A0EEA
:1016FC00F66E100EF76E000EF86E09006F00D4FF38
:10170C0063F009006F00D4FF64F009006F00D4FF90
:10171C0065F00A006F00D4FF66F0030E00016765E8
:10172C009AEF0BF09CEF0BF09EEF0BF0030E676F34
:10173C006751630FD96EDA6ADF5062258009BCEC01
:10174C000DF01200086E0A0EF66E100EF76E000EFB
:10175C00F86E09006F00D4FF04F009006F00D4FF8D
:10176C0005F009006F00D4FF06F00A006F00D4FFEB
:10177C0007F0030E0864C5EF0BF0C7EF0BF0C9EFD1
:10178C000BF0030E086E0850040FD96EDA6ADF50A6
:10179C000324800901EC0EF0120059EC0EF03A0E05
:1017AC000001606F180E616F6BEC0EF0940E00016F
:1017BC00606F160E616F7AEC0EF05A0E0001606FBE
:1017CC00140E616F75EC0EF0C00E0001606F1B0EF5
:1017DC00616F70EC0EF0D28EC39ABB9A3EEC08F09F
:1017EC00F6EF0BF00DEF00F0B2A4FFEF0BF001EFF2
:1017FC000CF017EF0CF0B2B006EF0CF009EF0CF098
:10180C00010E0AEF0CF0000E036E0250B16E600078
:10181C0007F0B0FF03B002D0B29001D0B2801CEF41
:10182C000CF00250B16E600007F0B0FF120038509F
:10183C00016E3950026E384A392A025009E1150EF0
:10184C00015CD8A02CEF0CF02EEF0CF03DEF0CF05F
:10185C00000E396E000E386E3C50D8B438EF0CF0D8
:10186C003BEF0CF0010E3CEF0CF0000E3C6E120046
:10187C00D29A3901A191D280000E0001606F000E46
:10188C00616F89EC0EF03901A591D282000E000136
:10189C00606F000E616F84EC0EF03901A79BD2844F
:1018AC00000E0001606F000E616F7FEC0EF01200F5
:1018BC00B290B36AB46A040EB56EF30EB16EE30E59
:1018CC00B06EB1500001606FB0503A6E60C03BF02A
:1018DC001C0E2A6E1D0E2B6E000E286E000E296E2D
:1018EC003901A4919481A493050EB26E12008BEF72
:1018FC000CF060008BF1F6FF100EF76EF86A080022
:10190C00F550AAEC0DF00001622B60008BF1F6FF94
:10191C00100EF76EF86A0800F5500009D8A499EF7C
:10192C000CF09BEF0CF07FEF0CF012003A0147A388
:10193C00A2EF0CF0A4EF0CF0A6EF0CF092EC0DF073
:10194C003A0147A5ACEF0CF0AEEF0CF0B0EF0CF099
:10195C007AEC0DF03A0147A7B6EF0CF0B8EF0CF0AB
:10196C00BAEF0CF062EC0DF012003AC001F03BC083
:10197C0002F0FAEC0BF02A502B10D8B4C8EF0CF094
:10198C00CAEF0CF0D6EF0CF002D8D6EF0CF0050035
:10199C00FA6E2A50FD6E2B50FE6EFF6AFA50120042
:1019AC003901A4911200E6EF0CF060000FF0F6FF85
:1019BC00100EF76EF86A0800F550F1EC0DF0032AE2
:1019CC0060000FF0F6FF100EF76EF86A0800F55085
:1019DC000009D8A4F4EF0CF0F6EF0CF0DBEF0CF0F0
:1019EC001200016E0150D8B4FEEF0CF000EF0DF0B8
:1019FC000BEF0DF0BB8A030EE82EFED700D0BB9A7E
:101A0C00030EE82EFED713EF0DF0BB8A00D000D0EA
:101A1C000000BB9A040EE82EFED71200BB92BB90BE
:101A2C00020E0001646FA00E636F920EE82EFED7BB
:101A3C00632FFCD7642FFAD70000380EBCEC0DF0E6
:101A4C000C0EBCEC0DF0060EBCEC0DF02CEC0EF0FC
:101A5C001200BB92BB90020E056EA00E046E920E8D
:101A6C00E82EFED7042EFCD7052EFAD700D0380E60
:101A7C0001EC0EF00C0E01EC0EF0060E01EC0EF06B
:101A8C0044EC0EF0120000EE6AF010EEB0F1EE6ACB
:101A9C00E550E150FCE1E250FAE13D6A3C6A3B6AF8
:101AAC003A6A396A386A080ED56E000ED66E000E88
:101ABC00D76E0001D3EF0BF032503310D8B469EF6E
:101ACC000DF06BEF0DF077EF0DF002D877EF0DF016
:101ADC000500FA6E3250FD6E3350FE6EFF6AFA50FE
:101AEC0012003A014797120034503510D8B481EFE8
:101AFC000DF083EF0DF08FEF0DF002D88FEF0DF09E
:101B0C000500FA6E3450FD6E3550FE6EFF6AFA50C9
:101B1C0012003A014795120036503710D8B499EF9D
:101B2C000DF09BEF0DF0A7EF0DF002D8A7EF0DF025
:101B3C000500FA6E3650FD6E3750FE6EFF6AFA5095
:101B4C0012003A01479312000001616FBB826000E2
:101B5C0087F1BCFF10EC0EF0150E0001606FC60E85
:101B6C00E82EFED7602FFCD7000012000001616F39
:101B7C00BB92600087F1BCFF10EC0EF02A0E000146
:101B8C00606F8D0EE82EFED7602FFCD700D01200B0
:101B9C00026E036A0250800BF7EC0CF0D890023600
:101BAC00032A070E0364DDEF0DF0DFEF0DF0D0EF2D
:101BBC000DF01200040E216E400E206E260EE82E43
:101BCC00FED7202EFCD7212EFAD700D007EC0BF035
:101BDC00D9EC08F01200026EBB8260000BF0BCFF67
:101BEC001EEC0EF0150E016EC60EE82EFED7012E61
:101BFC00FCD700D01200026EBB9260000BF0BCFF51
:101C0C001EEC0EF02A0E016E8E0EE82EFED7012E63
:101C1C00FCD71200BB80050EE82EFED70000BB904F
:101C2C00E40E00D000D0E82EFCD700D000D012007B
:101C3C00BB80050EE82EFED70000BB90E40E00D052
:101C4C0000D0E82EFCD700D000D01200010EBCEC66
:101C5C000DF02A0E0001626F8D0EE82EFED7622F5A
:101C6C00FCD700D01200066E0450CEEC0DF00650DE
:101C7C00CEEC0DF00550CEEC0DF01200010E01EC87
:101C8C000EF02A0E036E8E0EE82EFED7032EFCD716
:101C9C001200BB9AB60E00D000D0E82EFCD700D0B4
:101CAC0000D000D0120062EC0EF0C1EC0AF05EEC39
:101CBC000CF03EEC0CF01200600E3901D96FDB6BAE
:101CCC00DD6B080EDF6FDE6B120060C02AF061C0A6
:101CDC002BF0120060C032F061C033F0120060C013
:101CEC0034F061C035F0120060C036F061C037F0DE
:101CFC00120060C02CF061C02DF0120060C02EF0FC
:101D0C0061C02FF0120060C030F061C031F01200E1
:081D1C00120012001200120077
:020000040030CA
:0A0000008FFFF7FF9FFFFFFFFFFFD8
:00000001FF
