:040000000DEF00F010
:04000800A8EF09F064
:06001800FF0063EF0CF095
:101000000000640064000000006400401050312EB5
:1010100049434C454420322E4D657375726500433B
:101020006F756C6575723A20524F554745004D6596
:101030007375726520636F7572616E7400436F75AE
:101040006C6575723A205645525400436F756C6555
:1010500075723A20424C455500312E5220322E47AF
:1010600020332E4200436F7572616E743A004368FC
:0B1070006F69783A004C45443A0000DC
:10107C002FEC0CF041EC0DF0A3EF08F0000E156E08
:10108C00000EA1EC0AF06E0E156E9BEC0BF0000E30
:10109C00156E010EA1EC0AF00E0E156E9BEC0BF00A
:1010AC00CCEF08F0000E156E000EA1EC0AF0750ED8
:1010BC00156E9BEC0BF0000E156E010EA1EC0AF0F8
:1010CC00590E156E9BEC0BF0CCEF08F0000E156E64
:1010DC00000EA1EC0AF02E0E156E9BEC0BF0CCEF73
:1010EC0008F0000E156E000EA1EC0AF01F0E156E26
:1010FC009BEC0BF0CCEF08F0000E156E000EA1EC83
:10110C000AF03D0E156E9BEC0BF0CCEF08F0000EC8
:10111C00156E000EA1EC0AF04B0E156E9BEC0BF04D
:10112C00CCEF08F0000E156E000EA1EC0AF0650E67
:10113C00156E9BEC0BF0CCEF08F032501B6E1C6A5A
:10114C001C50000AD8B4ADEF08F0CCEF08F01B50DF
:10115C00000AD8B444EF08F0010AD8B458EF08F0EC
:10116C00030AD8B46CEF08F0010AD8B477EF08F092
:10117C00070AD8B482EF08F0010AD8B48DEF08F052
:10118C00030AD8B498EF08F0CCEF08F0120049EC41
:10119C000CF057EC0DF032EF09F0000E036E000E60
:1011AC00CCEC0AF06E0E036ED7EC0BF0000E036E57
:1011BC00010ECCEC0AF00E0E036ED7EC0BF05BEFCD
:1011CC0009F0000E036E000ECCEC0AF0750E036EE7
:1011DC00D7EC0BF0000E036E010ECCEC0AF0590E9E
:1011EC00036ED7EC0BF05BEF09F0000E036E000EF4
:1011FC00CCEC0AF02E0E036ED7EC0BF05BEF09F083
:10120C00000E036E000ECCEC0AF01F0E036ED7EC32
:10121C000BF05BEF09F0000E036E000ECCEC0AF045
:10122C003D0E036ED7EC0BF05BEF09F0000E036E76
:10123C00000ECCEC0AF04B0E036ED7EC0BF05BEF10
:10124C0009F0000E036E000ECCEC0AF0650E036E76
:10125C00D7EC0BF05BEF09F03250096E0A6A0A50BA
:10126C00000AD8B43CEF09F05BEF09F00950000A12
:10127C00D8B4D3EF08F0010AD8B4E7EF08F0030AAA
:10128C00D8B4FBEF08F0010AD8B406EF09F0070A4E
:10129C00D8B411EF09F0010AD8B41CEF09F0030A15
:1012AC00D8B427EF09F05BEF09F01200040E0C6EB6
:1012BC00400E0B6E260EE82EFED70B2EFCD70C2EF6
:1012CC00FAD700D03204D8A46EEF09F070EF09F011
:1012DC0074EF09F0030E326EA5EF09F0030E32180D
:1012EC00D8A47BEF09F07DEF09F081EF09F0040E33
:1012FC00326EA5EF09F0040E3218D8A488EF09F06D
:10130C008AEF09F08EEF09F0050E326EA5EF09F0A9
:10131C00050E3218D8A495EF09F097EF09F099EF64
:10132C0009F070EF09F03250D8A49FEF09F0A1EF4B
:10133C0009F0A5EF09F0020E326EA5EF09F0CDEC25
:10134C0008F012006F00E8FF0DF06F00ECFF0EF0DC
:10135C006F00D8FF0FF06F00DCFF10F06F00E0FFA4
:10136C0011F06F00D4FF12F0390190AFC0EF09F00B
:10137C00C2EF09F0CDEF09F0A0AFC7EF09F0C9EF4C
:10138C0009F0CDEF09F05EEC0BF0DDEF09F094A164
:10139C00D2EF09F0D4EF09F0DDEF09F0A4A1D9EFF9
:1013AC0009F0DBEF09F0DDEF09F0B9EC0BF06000B0
:1013BC004BF0F5FF600047F0F8FF600043F0F7FFDB
:1013CC0060003FF0F6FF60003BF0FBFF600037F081
:1013DC00FAFF1100BA6ABB6ABC6A3A01426B526BE3
:1013EC00626BFE0EC26EDC0EC36EC46AF00E406FF2
:1013FC00DC0E506F606B416B516B616B816B4369A1
:10140C0053696369446954696469080E846F5A6B43
:10141C005B6B6A6B6B6B0E0E456F466B476B556B5C
:10142C00566B576B656B666B676B856B866B876BE7
:10143C00340E136E1B0E146E83EC0DF0320E136E05
:10144C001B0E146E7EEC0DF0300E136E1B0E146E14
:10145C0079EC0DF03901908F12004EEF0AF0000E6E
:10146C00046E000E056E640E4CEC0DF0640E046EF2
:10147C00000E056E000E4CEC0DF0000E046E640EAA
:10148C00056E000E4CEC0DF0060E326E6FEF0AF08E
:10149C003250076E086A0850000AD8B458EF0AF0A8
:1014AC006FEF0AF00750020AD8B44AEF0AF0010AAB
:1014BC00D8B435EF0AF0070AD8B43CEF0AF0010AA9
:1014CC00D8B443EF0AF0030AD8B44AEF0AF06FEF2E
:1014DC000AF01200040E0C6E400E0B6E260EE82E57
:1014EC00FED70B2EFCD70C2EFAD700D085EF0AF0C6
:1014FC00010E326E9EEF0AF0326A9EEF0AF0325005
:10150C000B6E0C6A0C50000AD8B48FEF0AF082EF05
:10151C000AF00B50000AD8B47EEF0AF0010AD8B4D6
:10152C0082EF0AF0030AD8B482EF0AF082EF0AF0D5
:10153C00CDEC08F012001A6E0A0EF66E100EF76E55
:10154C00000EF86E09006F00D4FF16F009006F0052
:10155C00D4FF17F009006F00D4FF18F00A006F00D9
:10156C00D4FF19F0030E1A64BEEF0AF0C0EF0AF0B4
:10157C00C2EF0AF0030E1A6E1A50160FD96EDA6A01
:10158C00DF501524800907EC0DF01200086E0A0ECE
:10159C00F66E100EF76E000EF86E09006F00D4FF99
:1015AC0004F009006F00D4FF05F009006F00D4FFB0
:1015BC0006F00A006F00D4FF07F0030E0864E9EF91
:1015CC000AF0EBEF0AF0EDEF0AF0030E086E08508C
:1015DC00040FD96EDA6ADF500324800916EC0DF083
:1015EC00120062EC0DF07A0E136E160E146E74EC83
:1015FC000DF0E00E136E140E146E83EC0DF0B80E9D
:10160C00136E120E146E7EEC0DF0AC0E136E190EE2
:10161C00146E79EC0DF0D28EC39ABB9A3EEC08F0A6
:10162C0016EF0BF00DEF00F0B2A41FEF0BF021EF53
:10163C000BF037EF0BF0B2B026EF0BF029EF0BF0FD
:10164C00010E2AEF0BF0000E036E0250B16E60001B
:10165C0007F0B0FF03B002D0B29001D0B2803CEFE3
:10166C000BF00250B16E600007F0B0FF12002D506D
:10167C00016E2E50026E2D4A2E2A025009E1150ED3
:10168C00015CD8A04CEF0BF04EEF0BF05DEF0BF0C4
:10169C00000E2E6E000E2D6E3150D8B458EF0BF09C
:1016AC005BEF0BF0010E5CEF0BF0000E316E1200D5
:1016BC003A0147A364EF0BF066EF0BF068EF0BF009
:1016CC00ACEC0CF03A0147A56EEF0BF070EF0BF0A1
:1016DC0072EF0BF094EC0CF03A0147A778EF0BF09B
:1016EC007AEF0BF07CEF0BF07CEC0CF01200B2906C
:1016FC00B36AB46A040EB56EF30EB16EE30EB06E3F
:10170C00B150136EB0502F6E13C030F02E0E1F6EF2
:10171C001B0E206E000E1D6E000E1E6E3901A49164
:10172C009481A493050EB26E1200A8EF0BF060002A
:10173C0057F0F6FF100EF76EF86A0800F550E7EC5C
:10174C000CF0152A600057F0F6FF100EF76EF86AD1
:10175C000800F5500009D8A4B6EF0BF0B8EF0BF069
:10176C009DEF0BF012002FC001F030C002F01AEC0C
:10177C000BF01F502010D8B4C6EF0BF0C8EF0BF0D5
:10178C00D4EF0BF002D8D4EF0BF00500FA6E1F501B
:10179C00FD6E2050FE6EFF6AFA5012003901A491C2
:1017AC001200E4EF0BF060000FF0F6FF100EF76E76
:1017BC00F86A0800F550F7EC0CF0032A60000FF003
:1017CC00F6FF100EF76EF86A0800F5500009D8A461
:1017DC00F2EF0BF0F4EF0BF0D9EF0BF01200D29A02
:1017EC003901A191D280000E136E000E146E92EC92
:1017FC000DF03901A591D282000E136E000E146EFD
:10180C008DEC0DF03901A79BD284000E136E000EE7
:10181C00146E88EC0DF01200016E0150D8B419EF63
:10182C000CF01BEF0CF026EF0CF0BB8A030EE82E2D
:10183C00FED700D0BB9A030EE82EFED72EEF0CF08D
:10184C00BB8A00D000D00000BB9A040EE82EFED755
:10185C001200BB92BB90020E176EA00E166E920E6B
:10186C00E82EFED7162EFCD7172EFAD700D0380E3E
:10187C0007EC0DF00C0E07EC0DF0060E07EC0DF05E
:10188C0041EC0DF01200BB92BB90020E056EA00E47
:10189C00046E920EE82EFED7042EFCD7052EFAD736
:1018AC0000D0380E16EC0DF00C0E16EC0DF0060EEA
:1018BC0016EC0DF057EC0DF0120003EE50F210EE9A
:1018CC00B0F1EE6AE550E150FCE1E250FAE1326A27
:1018DC00316A306A2F6A2E6A2D6A080ED56E000E98
:1018EC00D66E000ED76E0001F7EF0AF027502810C5
:1018FC00D8B483EF0CF085EF0CF091EF0CF002D81C
:10190C0091EF0CF00500FA6E2750FD6E2850FE6E1C
:10191C00FF6AFA5012003A014797120029502A1018
:10192C00D8B49BEF0CF09DEF0CF0A9EF0CF002D8A3
:10193C00A9EF0CF00500FA6E2950FD6E2A50FE6ED0
:10194C00FF6AFA5012003A01479512002B502C10E6
:10195C00D8B4B3EF0CF0B5EF0CF0C1EF0CF002D82B
:10196C00C1EF0CF00500FA6E2B50FD6E2C50FE6E84
:10197C00FF6AFA5012003A0147931200026E036A92
:10198C000250800B12EC0CF0D8900236032A070E92
:10199C000364D3EF0CF0D5EF0CF0C6EF0CF0120093
:1019AC00040E0C6E400E0B6E260EE82EFED70B2E80
:1019BC00FCD70C2EFAD700D033EC0AF0CDEC08F0A3
:1019CC001200146EBB82600053F0BCFF25EC0DF0CE
:1019DC00150E136EC60EE82EFED7132EFCD700D0B4
:1019EC001200026EBB8260000BF0BCFF33EC0DF0FA
:1019FC00150E016EC60EE82EFED7012EFCD700D0B8
:101A0C001200146EBB92600053F0BCFF25EC0DF07D
:101A1C002A0E136E8E0EE82EFED7132EFCD7120054
:101A2C00026EBB9260000BF0BCFF33EC0DF02A0E83
:101A3C00016E8E0EE82EFED7012EFCD71200BB8055
:101A4C00050EE82EFED70000BB90E40E00D000D0AF
:101A5C00E82EFCD700D000D01200BB80050EE82E7B
:101A6C00FED70000BB90E40E00D000D0E82EFCD7CF
:101A7C0000D000D01200010E07EC0DF02A0E156EEE
:101A8C008E0EE82EFED7152EFCD71200066E0450D3
:101A9C00C4EC0CF00650C4EC0CF00550C4EC0CF08B
:101AAC001200010E16EC0DF02A0E036E8E0EE82EAF
:101ABC00FED7032EFCD712006BEC0DF0F0EC09F006
:101ACC007DEC0BF0F5EC0BF01200600E3901D96FC8
:101ADC00DB6BDD6B080EDF6FDE6B120013C01FF0CB
:101AEC0014C020F0120013C027F014C028F012000C
:101AFC0013C029F014C02AF0120013C02BF014C02C
:101B0C002CF0120013C021F014C022F0120013C0EC
:101B1C0023F014C024F0120013C025F014C026F0DA
:0A1B2C001200120012001200120055
:020000040030CA
:0A0000008FFFF7FF9FFFFFFFFFFFD8
:00000001FF
