:040000000DEF00F010
:04000800EAEF09F022
:06001800FF0042EF0AF0B8
:101000000000186A186A196A1950030D6F00CCFFA6
:101010000CF06F00D0FF0DF01850240D500EF3248B
:101020000E6E0E0EF4200F6E0C500E24D96E0D5065
:101030000F20DA6EDF50096E1950030D6F00CCFFE0
:1010400010F06F00D0FF11F01850240D520EF32451
:10105000126E0E0EF420136E10501224D96E115021
:101060001320DA6EDF500A6E1950030D6F00CCFFAB
:1010700014F06F00D0FF15F01850240D510EF3241A
:10108000166E0E0EF420176E14501624D96E1550DD
:101090001720DA6EDF506EEC0AF0192A0B0E196475
:1010A00054EF08F056EF08F004EF08F0182A0B0E82
:1010B00018645DEF08F05FEF08F003EF08F079ECDB
:1010C0000AF012000A6A0A6A0B6A0B50030D6F00DD
:1010D000CCFF06F06F00D0FF07F00A50240D510E30
:1010E000F324086E0E0EF420096E06500824D96E03
:1010F00007500920DA6E3C0EDF6E0B50030D6F00B7
:10110000CCFF06F06F00D0FF07F00A50240D500E00
:10111000F324086E0E0EF420096E06500824D96ED2
:1011200007500920DA6E140EDF6E0B50030D6F00AE
:10113000CCFF06F06F00D0FF07F00A50240D520ECE
:10114000F324086E0E0EF420096E06500824D96EA2
:1011500007500920DA6EDF6A0B2A0B0E0B64B3EF1F
:1011600008F0B5EF08F065EF08F00A2A0B0E0A64E4
:10117000BCEF08F0BEEF08F064EF08F012000A6A56
:101180000A6A0B6A0B50030D6F00CCFF06F06F006C
:10119000D0FF07F00A50240D510EF324086E0E0EF6
:1011A000F420096E06500824D96E07500920DA6E23
:1011B000DF6A0B50030D6F00CCFF06F06F00D0FF0D
:1011C00007F00A50240D500EF324086E0E0EF42082
:1011D000096E06500824D96E07500920DA6EDF6ABE
:1011E0000B50030D6F00CCFF06F06F00D0FF07F02F
:1011F0000A50240D520EF324086E0E0EF420096ED0
:1012000006500824D96E07500920DA6EDF6A0B2ACF
:101210000B0E0B640EEF09F010EF09F0C2EF08F0AF
:101220000A2A0B0E0A6417EF09F019EF09F0C1EF53
:1012300008F01200BA6ABB6ABC6A3A01426B526B90
:10124000626BFE0EC26EDF0EC36EC468FE0E406F90
:10125000DF0E506F6069416B516B616B816B43694D
:1012600053696369446954696469080E846F5A6BF1
:101270005B6B6A6B6B6B456B466B476B556B566B69
:10128000576B656B666B676B856B866B876B120044
:10129000B2A44DEF09F04FEF09F065EF09F0B2B0DD
:1012A00054EF09F057EF09F0010E58EF09F0000E66
:1012B000036E0250B16E600007F0B0FF03B002D0C1
:1012C000B29001D0B2806AEF09F00250B16E6000B6
:1012D00007F0B0FF120083EC0AF0180E066E130E32
:1012E000076E95EC0AF0D28EC39ABB9A2804D8A454
:1012F0007CEF09F07EEF09F082EF09F062EC08F074
:1013000084EF09F0BFEC08F0D29E01EC08F0D28E19
:1013100076EF09F00DEF00F02450016E2550026EBB
:10132000244A252A025009E1150E015CD8A09BEF42
:1013300009F09DEF09F0ACEF09F0000E256E000EEC
:10134000246E2850D8B4A7EF09F0AAEF09F0010ED7
:10135000ABEF09F0000E286E120026C001F027C086
:1013600002F048EC09F01C501D10D8B4BAEF09F097
:10137000BCEF09F0C9EF09F002D8C9EF09F0050088
:10138000FA6E1C50FD6E1D50FE6EF850FF6EFA5046
:1013900012003901A4911200B290B36AB46A040E2B
:1013A000B56EF30EB16EE30EB06EB150066EB05076
:1013B000266E06C027F0520E1C6E150E1D6E000E16
:1013C0001A6E000E1B6E3901A4919481A493050E30
:1013D000B26E12006F00E8FF04F06F00ECFF05F042
:1013E000390194A1F6EF09F0F8EF09F001EF0AF0E6
:1013F000A4A1FDEF09F0FFEF09F001EF0AF0ADEC59
:1014000009F0600017F0FBFF600013F0FAFF110015
:10141000066E0650D8B40FEF0AF011EF0AF01CEF79
:101420000AF0BB8A030EE82EFED700D0BB9A030E4B
:10143000E82EFED724EF0AF0BB8A00D000D00000CF
:10144000BB9A040EE82EFED71200D29A3901A19160
:10145000D280000E066E000E076EA4EC0AF0390171
:10146000A591D282000E066E000E076E9FEC0AF068
:101470003901A79BD284000E066E000E076E9AEC0F
:101480000AF0120003EE50F210EEB0F1EE6AE550F1
:10149000E150FCE1E250FAE1286A276A266A256AEF
:1014A000246A080ED56E000ED66E000ED76E000EA2
:1014B000F86E00016BEF09F0076E086A0750800BA9
:1014C00008EC0AF0D8900736082A070E08646BEF7C
:1014D0000AF06DEF0AF05EEF0AF012000B6E095091
:1014E0005CEC0AF00B505CEC0AF00A505CEC0AF081
:1014F0001200BB9AB60E00D000D0E82EFCD700D068
:1015000000D000D012008CEC0AF01AEC09F0CCEC00
:1015100009F025EC0AF01200600E3901D96FDB6B7F
:10152000DD6B080EDF6FDE6B120006C01CF007C01B
:101530001DF0120006C01EF007C01FF0120006C00A
:1015400020F007C021F0120006C022F007C023F0EF
:041550001200120073
:020000040030CA
:0A0000008FFFF7FF9FFFFFFFFFFFD8
:00000001FF
