:040000000DEF00F010
:04000800BEEF26F031
:10001800FF00D2EF30F00101856B5CC18AF15DC150
:100028008BF15EC18CF15FC18DF18DBF20EF00F0C7
:100038001EEF00F034EF00F0010E856F8AC106F163
:100048008BC107F18CC108F18DC109F150EC31F079
:1000580006C18AF107C18BF108C18CF109C18DF184
:10006800000E0101896F000E886FDDC075F1DEC0DA
:1000780076F18551D8B443EF00F045EF00F059EF21
:1000880000F08551D8A44BEF00F04DEF00F053EF8E
:1000980000F0000E666F2B0E656F57EF00F0000E34
:1000A800666F2D0E656F65C185F18AC106F18BC13A
:1000B80007F18CC108F18DC109F1CAEC24F00101E6
:1000C80006050711D8A46BEF00F06DEF00F09FEF65
:1000D80000F08551D8B473EF00F075EF00F07EEFB3
:1000E80000F085C100F27507D8A07607000E896F69
:1000F800010E886F000E8825066F020E8921076F92
:10010800F70E086FFF0E096F04EC30F00101FD0EC9
:100118007527FF0E76235AC116F15BC117F1000E41
:10012800186F020E196F75C11AF176C11BF1B4EC84
:100138002CF0ADEF05F08AC106F18BC107F18CC137
:1001480008F18DC109F1CAEC24F00101065107112B
:10015800D8A4B1EF00F0B3EF00F0D2EF00F0855172
:10016800D8B4B9EF00F0BBEF00F0C4EF00F085C1E0
:1001780000F27507D8A07607000E896F010E886F08
:10018800000E8825066F020E8921076FFB0E086F87
:10019800FF0E096F04EC30F08AEF00F0000E8E6F4E
:1001A800000E8F6F800E906F3F0E916F000E846F60
:1001B800000E836F8AC106F18BC107F18CC108F16B
:1001C8008DC109F1000E0A6F000E0B6F000E0C6F47
:1001D800000E0D6F99EC2AF00101D8B0F6EF00F08F
:1001E800F8EF00F0DAEF01F004EF01F077C18EF1DB
:1001F80078C18FF179C190F17AC191F1834B842B49
:100208008EC114F18FC115F190C116F191C117F18A
:10021800000E186F000E196F200E1A6F410E1B6F1B
:10022800FCEC0FF014C177F115C178F116C179F122
:1002380017C17AF1010177518A5D066F78518B59A0
:10024800076F79518C59086F7A518D59096F70EC85
:100258002EF0010109BF3CEF01F009510811071107
:1002680009E1020E065DD8A03CEF01F03EEF01F077
:10027800FAEF00F077C12DF178C12EF179C12FF195
:100288007AC130F18AC131F18BC132F18CC133F1BD
:100298008DC134F142EC23F00101D8A056EF01F0F2
:1002A80058EF01F0FAEF00F08E518A5D066F8F511A
:1002B8008B59076F90518C59086F91518D59096F5F
:1002C80070EC2EF0010109BF77EF01F00951081118
:1002D800071107E1020E065DD8B075EF01F077EF60
:1002E80001F0C0EF01F08EC18AF18FC18BF190C18E
:1002F8008CF191C18DF1DAEF01F08EC12DF18FC132
:100308002EF190C12FF191C130F1000E316F000E26
:10031800326F200E336F410E346F2DEC16F02DC165
:100328008EF12EC18FF12FC190F130C191F10101F1
:100338008307D8A084078E518A5D066F8F518B5929
:10034800076F90518C59086F91518D59096F70EC56
:100358002EF0010109BFBEEF01F009510811071184
:1003680007E1020E065DD8B0BCEF01F0BEEF01F068
:10037800C0EF01F077EF01F08AC12DF18BC12EF1AA
:100388008CC12FF18DC130F18EC131F18FC132F1A5
:1003980090C133F191C134F142EC23F00101D8A0AE
:1003A800D8EF01F0DAEF01F081EF01F060C16DF1F3
:1003B8006DC174F10001E0BFE4EF01F0E6EF01F078
:1003C800ECEF01F0DFC072F1E0C073F1F1EF01F082
:1003D800000E0101736F060E726F72C170F173C166
:1003E80071F10101704B712B660E7419D8A4FFEFDF
:1003F80001F001EF02F021EF02F084BF08EF02F0F4
:1004080006EF02F014EF02F0000E8E6F000E8F6FF1
:10041800800E906F3F0E916F000E846F000E836FF9
:10042800670E6D19D8B41BEF02F01DEF02F021EF33
:1004380002F08351702784517123000E876F000EDC
:10044800866F8AC17BF18BC17CF18CC17DF18DC136
:100458007EF18EC177F18FC178F190C179F191C1A8
:100468007AF1B3EF02F07BC12DF17CC12EF17DC191
:100478002FF17EC130F18EC131F18FC132F190C1BF
:1004880033F191C134F12DEC16F02DC146F12EC196
:1004980047F12FC148F130C149F157EC1EF046C170
:1004A8007FF147C180F148C181F149C182F17FC123
:1004B80050F180C151F181C152F182C153F1BEECBA
:1004C80022F050C16EF151C16FF17BC12DF17CC199
:1004D8002EF17DC12FF17EC130F17FC118F180C1AD
:1004E80019F181C11AF182C11BF18EC114F18FC1BA
:1004F80015F190C116F191C117F1FCEC0FF014C180
:1005080031F115C132F116C133F117C134F1E0EC04
:100518002FF02DC17BF12EC17CF12FC17DF130C1AF
:100528007EF18EC12DF18FC12EF190C12FF191C1B5
:1005380030F1000E0101316F000E326F200E336F63
:10054800410E346F2DEC16F02DC18EF12EC18FF1B6
:100558002FC190F130C191F10101864B872B705169
:10056800865D8751800A616F7151800A6159D8A0F0
:10057800C0EF02F0C2EF02F037EF02F08EC114F1C3
:100588008FC115F190C116F191C117F1000E186FC6
:10059800000E196FA00E1A6F400E1B6FFCEC0FF0C7
:1005A80014C17FF115C180F116C181F117C182F123
:1005B8007BC12DF17CC12EF17DC12FF17EC130F1BF
:1005C8007FC131F180C132F181C133F182C134F18F
:1005D80042EC23F00101D8B0F4EF02F0F6EF02F09C
:1005E80000EF03F0000E7F6F000E806F000E816F2A
:1005F800000E826F29EF03F07BC106F17CC107F181
:100608007DC108F17EC109F17FC10AF180C10BF1FA
:1006180081C10CF182C10DF199EC2AF00101D8A039
:1006280018EF03F01AEF03F029EF03F06EB11FEF94
:1006380003F021EF03F029EF03F0000E7F6F000EA7
:10064800806F000E816F000E826F8AC106F18BC128
:1006580007F18CC108F18DC109F17FC10AF180C190
:100668000BF181C10CF182C10DF145EC0BF006C113
:100678007BF107C17CF108C17DF109C17EF17BC125
:100688002DF17CC12EF17DC12FF17EC130F1000E1C
:100698000101186F000E196F200E1A6F410E1B6FA3
:1006A80077C114F178C115F179C116F17AC117F142
:1006B800FCEC0FF014C131F115C132F116C133F160
:1006C80017C134F142EC23F00101D8A06EEF03F01A
:1006D80070EF03F098EF03F0834B842B77C114F18C
:1006E80078C115F179C116F17AC117F1000E186FAA
:1006F800000E196F200E1A6F410E1B6FFCEC0FF0E5
:1007080014C177F115C178F116C179F117C17AF1E1
:10071800660E01017419D8A494EF03F096EF03F064
:1007280098EF03F0704B712B77C18EF178C18FF180
:1007380079C190F17AC191F1650E7419D8B4A7EF17
:1007480003F0A9EF03F0AFEF03F083C169F184C1AF
:100758006AF1B3EF03F0000E6A6F000E696F6B6BFE
:10076800000E646F000E636F000E876F000E866FB9
:10077800A4EF04F07BC12DF17CC12EF17DC12FF1D6
:100788007EC130F18EC131F18FC132F190C133F1A8
:1007980091C134F12DEC16F02DC146F12EC147F16F
:1007A8002FC148F130C149F157EC1EF046C17FF125
:1007B80047C180F148C181F149C182F17FC150F13F
:1007C80080C151F181C152F182C153F1BEEC22F0D6
:1007D800010151BFFBEF03F0515107E10A0E505DD3
:1007E800D8B0F9EF03F0FBEF03F00BEF04F07FC193
:1007F80050F180C151F181C152F182C153F1BEEC77
:1008080022F050C16EF151C16FF10FEF04F0000EEC
:100818006F6F090E6E6F01016B51D8A416EF04F0CB
:1008280018EF04F040EF04F06ABF1FEF04F01DEF6B
:1008380004F040EF04F0000E8825D96E020E8921DD
:10084800DA6E2E0EDF6E884B892B7507D8A07607D7
:10085800010E6B6F40EF04F0000E8825D96E020E72
:100868008921DA6E300EDF6E884B892B7507D8A088
:1008780076076307D8A0640763516411D8A447EFCB
:1008880004F049EF04F030EF04F0000E8825D96E2B
:10089800020E8921DA6E6E51300FDF6E884B892B7C
:1008A8007507D8A076077BC12DF17CC12EF17DC1DB
:1008B8002FF17EC130F17FC118F180C119F181C1DA
:1008C8001AF182C11BF18EC114F18FC115F190C1CB
:1008D80016F191C117F1FCEC0FF014C131F115C1FB
:1008E80032F116C133F117C134F1E0EC2FF02DC10C
:1008F8007BF12EC17CF12FC17DF130C17EF18EC11B
:100908002DF18FC12EF190C12FF191C130F1000E60
:100918000101316F000E326F200E336F410E346FBC
:100928002DEC16F02DC18EF12EC18FF12FC190F153
:1009380030C191F101016907D8A06A07864B872B5E
:100948007051865D8751800A616F7151800A6159C3
:10095800D8B0B1EF04F0B3EF04F0C1EF04F089BFF1
:10096800BFEF04F0895109E14B0E885DD8A0BFEFB5
:1009780004F0C1EF04F0BEEF03F0000E876F4F0ED6
:10098800866F000E8625D96E020E8721DA6EDF6A21
:10099800650E7419D8A4D3EF04F0D5EF04F05AEF1C
:1009A80005F06C6B84BFDDEF04F0DBEF04F0E3EFE0
:1009B80004F0010E6C6F836D841FD8B0842B000E79
:1009C800736F020E726F15EF05F08607D8A08707C0
:1009D800000E8625D96E020E8721DA6E83C106F1D4
:1009E80084C107F1000E096F0A0E086FEAEC29F0BE
:1009F80001010651300FDF6E83C106F184C107F192
:100A0800000E096F0A0E086F69EC28F006C183F121
:100A180007C184F101017207D8A073077507D8A030
:100A2800760783518411D8A41CEF05F01EEF05F05A
:100A3800E9EF04F073BF2BEF05F0735106E172057F
:100A4800D8B029EF05F02BEF05F0E9EF04F08607A1
:100A5800D8A087076C51D8A434EF05F036EF05F01D
:100A68003CEF05F0000E686F2B0E676F40EF05F046
:100A7800000E686F2D0E676F000E8625D96E020E68
:100A88008721DA6E60009FF5DFFF7507D8A076072B
:100A98008607D8A08707000E8625D96E020E872103
:100AA800DA6E650EDF6E7507D8A07607000E616FE7
:100AB800020E626F8851615F8951625B86516125C0
:100AC800066F87516221076F000E086F020E096FCB
:100AD80088C10AF189C10BF1E9EC2DF001018851B7
:100AE800865D886F89518759896F8551D8A47FEFB2
:100AF80005F082EF05F0010E83EF05F0000E866F1A
:100B0800876B8551D8B48BEF05F08DEF05F099EF21
:100B180005F08807D8A08907000E8825D96E020E2F
:100B28008921DA6E600017F6DFFF8651755F8751FD
:100B3800765B5AC116F15BC117F1000E8825186F54
:100B4800020E8921196F75C11AF176C11BF1B4EC37
:100B58002CF012000001826B57C087F058C088F053
:100B680059C089F05AC08AF08ABFBFEF05F0BDEFBF
:100B780005F0D3EF05F0010E826F87C001F088C041
:100B880002F089C003F08AC004F08AEC31F001C099
:100B980087F002C088F003C089F004C08AF0000E14
:100BA8000001866F000E856FDDC072F0DEC073F045
:100BB8008251D8B4E2EF05F0E4EF05F0F8EF05F064
:100BC8008251D8A4EAEF05F0ECEF05F0F2EF05F05A
:100BD800000E636F2B0E626FF6EF05F0000E636F69
:100BE8002D0E626F62C082F087C001F088C002F0EB
:100BF80089C003F08AC004F04AEC25F00104021011
:100C0800D8A409EF06F00BEF06F03EEF06F000015E
:100C18008251D8B412EF06F014EF06F01DEF06F07B
:100C280082C000F27207D8A07307000E866F010E0B
:100C3800856F000E8525016E020E8621026EF70E65
:100C4800036EFF0E046E6DEC30F00001FD0E72278E
:100C5800FF0E732355C011F056C012F0000E136E2C
:100C6800020E146E72C015F073C016F026EC2DF04B
:100C780044EF0BF087C001F088C002F089C003F090
:100C88008AC004F04AEC25F001500210D8A44FEFB6
:100C980006F051EF06F071EF06F000018251D8B46A
:100CA80058EF06F05AEF06F063EF06F082C000F244
:100CB8007207D8A07307000E866F010E856F000EAD
:100CC8008525016E020E8621026EFB0E036EFF0E55
:100CD800046E6DEC30F029EF06F0000E00018B6F0A
:100CE800000E8C6F800E8D6F3F0E8E6F000E816F21
:100CF800000E806F87C001F088C002F089C003F041
:100D08008AC004F0000E056E000E066E000E076E17
:100D1800000E086E45EC2BF0D8B095EF06F097EF73
:100D280006F076EF07F0A4EF06F074C08BF075C0FC
:100D38008CF076C08DF077C08EF00001804B812B4F
:100D48008BC00FF08CC010F08DC011F08EC012F067
:100D5800000E136E000E146E200E156E410E166EE8
:100D680022EC12F00FC074F010C075F011C076F0CC
:100D780012C077F000017451875D016E7551885972
:100D8800026E76518959036E77518A59046EF2ECD6
:100D98002EF004BEDBEF06F004500310021009E148
:100DA800020E015CD8A0DBEF06F0DDEF06F099EF4C
:100DB80006F074C028F075C029F076C02AF077C014
:100DC8002BF087C02CF088C02DF089C02EF08AC087
:100DD8002FF048EC24F0D8A0F4EF06F0F6EF06F078
:100DE80099EF06F000018B51875D016E8C5188598F
:100DF800026E8D518959036E8E518A59046EF2EC38
:100E08002EF004BE15EF07F004500310021007E19E
:100E1800020E015CD8B013EF07F015EF07F05DEF95
:100E280007F08BC087F08CC088F08DC089F08EC029
:100E38008AF076EF07F08BC028F08CC029F08DC0BF
:100E48002AF08EC02BF0000E2C6E000E2D6E200E98
:100E58002E6E410E2F6EF6EC17F028C08BF029C0CD
:100E68008CF02AC08DF02BC08EF000018007D8A02E
:100E780081078B51875D016E8C518859026E8D51A7
:100E88008959036E8E518A59046EF2EC2EF004BE15
:100E98005BEF07F004500310021007E1020E015C3B
:100EA800D8B059EF07F05BEF07F05DEF07F015EFEB
:100EB80007F087C028F088C029F089C02AF08AC0C6
:100EC8002BF08BC02CF08CC02DF08DC02EF08EC076
:100ED8002FF048EC24F0D8A074EF07F076EF07F075
:100EE8001FEF07F05BC06AF06AC071F00001E0BF55
:100EF80080EF07F082EF07F088EF07F0DFC06FF0B0
:100F0800E0C070F08CEF07F0000E706F060E6F6F88
:100F18006FC06DF070C06EF06D4B6E2B660E711960
:100F2800D8A499EF07F09BEF07F0BBEF07F081BF5C
:100F3800A2EF07F0A0EF07F0AEEF07F0000E8B6FFF
:100F4800000E8C6F800E8D6F3F0E8E6F000E816FBE
:100F5800000E806F670E6A19D8B4B5EF07F0B7EFC7
:100F680007F0BBEF07F080516D2781516E23000E0B
:100F7800846F000E836F87C078F088C079F089C0CD
:100F88007AF08AC07BF08BC074F08CC075F08DC08D
:100F980076F08EC077F04CEF08F078C028F079C072
:100FA80029F07AC02AF07BC02BF08BC02CF08CC0C3
:100FB8002DF08DC02EF08EC02FF0F6EC17F028C063
:100FC80041F029C042F02AC043F02BC044F062EC43
:100FD8001FF041C07CF042C07DF043C07EF044C0A9
:100FE8007FF07CC04BF07DC04CF07EC04DF07FC0E0
:100FF8004EF0C5EC23F04BC06BF04CC06CF078C0E1
:1010080028F079C029F07AC02AF07BC02BF07CC088
:1010180013F07DC014F07EC015F07FC016F08BC0B1
:101028000FF08CC010F08DC011F08EC012F022ECC1
:1010380012F00FC02CF010C02DF011C02EF012C00D
:101048002FF04AEC30F028C078F029C079F02AC097
:101058007AF02BC07BF08BC028F08CC029F08DC0B3
:101068002AF08EC02BF0000E2C6E000E2D6E200E76
:101078002E6E410E2F6EF6EC17F028C08BF029C0AB
:101088008CF02AC08DF02BC08EF00001834B842B8E
:101098006D51835D8451800A5C6E6E51800A5C5884
:1010A800D8A059EF08F05BEF08F0D1EF07F08BC03C
:1010B8000FF08CC010F08DC011F08EC012F0000E31
:1010C800136E000E146EA00E156E400E166E22ECF6
:1010D80012F00FC07CF010C07DF011C07EF012C07D
:1010E8007FF078C028F079C029F07AC02AF07BC058
:1010F8002BF07CC02CF07DC02DF07EC02EF07FC080
:101108002FF048EC24F0D8B08CEF08F08EEF08F000
:1011180099EF08F0000E00017C6F000E7D6F000E45
:101128007E6F000E7F6FC2EF08F078C001F079C0C3
:1011380002F07AC003F07BC004F07CC005F07DC0EB
:1011480006F07EC007F07FC008F045EC2BF0D8A071
:10115800B0EF08F0B2EF08F0C2EF08F000016BB191
:10116800B8EF08F0BAEF08F0C2EF08F0000E7C6F95
:10117800000E7D6F000E7E6F000E7F6F87C001F03E
:1011880088C002F089C003F08AC004F07CC005F072
:101198007DC006F07EC007F07FC008F0A1EC0DF01E
:1011A80001C078F002C079F003C07AF004C07BF087
:1011B80078C028F079C029F07AC02AF07BC02BF0DB
:1011C800000E136E000E146E200E156E410E166E74
:1011D80074C00FF075C010F076C011F077C012F02F
:1011E80022EC12F00FC02CF010C02DF011C02EF020
:1011F80012C02FF048EC24F0D8A005EF09F007EF53
:1012080009F030EF09F00001804B812B74C00FF01A
:1012180075C010F076C011F077C012F0000E136E92
:10122800000E146E200E156E410E166E22EC12F092
:101238000FC074F010C075F011C076F012C077F0CE
:10124800660E00017119D8A42CEF09F02EEF09F0F1
:1012580030EF09F06D4B6E2B74C08BF075C08CF0BD
:1012680076C08DF077C08EF0650E00017119D8B484
:1012780040EF09F042EF09F048EF09F080C066F04E
:1012880081C067F04CEF09F0000E676F000E666FC3
:10129800686B000E616F000E606F000E846F000EA9
:1012A800836F3CEF0AF078C028F079C029F07AC043
:1012B8002AF07BC02BF08BC02CF08CC02DF08DC099
:1012C8002EF08EC02FF0F6EC17F028C041F029C0A0
:1012D80042F02AC043F02BC044F062EC1FF041C03A
:1012E8007CF042C07DF043C07EF044C07FF07CC0FB
:1012F8004BF07DC04CF07EC04DF07FC04EF0C5EC89
:1013080023F04CBE93EF09F04C5007E10A0E4B5CFA
:10131800D8B091EF09F093EF09F0A3EF09F07CC082
:101328004BF07DC04CF07EC04DF07FC04EF0C5EC58
:1013380023F04BC06BF04CC06CF0A8EF09F0000E26
:1013480000016C6F090E6B6F00016851D8A4AFEFF4
:1013580009F0B1EF09F0D9EF09F067BFB8EF09F06C
:10136800B6EF09F0D9EF09F0000E8525D96E020E07
:101378008621DA6E2E0EDF6E854B862B7207D8A07B
:101388007307010E686FD9EF09F0000E8525D96E35
:10139800020E8621DA6E300EDF6E854B862B7207C1
:1013A800D8A073076007D8A0610760516111D8A45D
:1013B800E0EF09F0E2EF09F0C9EF09F0000E85252A
:1013C800D96E020E8621DA6E6B51300FDF6E854BB7
:1013D800862B7207D8A0730778C028F079C029F047
:1013E8007AC02AF07BC02BF07CC013F07DC014F0CB
:1013F8007EC015F07FC016F08BC00FF08CC010F0C7
:101408008DC011F08EC012F022EC12F00FC02CF03B
:1014180010C02DF011C02EF012C02FF04AEC30F0A1
:1014280028C078F029C079F02AC07AF02BC07BF068
:101438008BC028F08CC029F08DC02AF08EC02BF00C
:10144800000E2C6E000E2D6E200E2E6E410E2F6E8D
:10145800F6EC17F028C08BF029C08CF02AC08DF06C
:101468002BC08EF000016607D8A06707834B842B3A
:101478006D51835D8451800A5C6E6E51800A5C58A0
:10148800D8B049EF0AF04BEF0AF059EF0AF086BFDF
:1014980057EF0AF0865109E14B0E855DD8A057EF4A
:1014A8000AF059EF0AF057EF09F0000E846F4F0E5B
:1014B800836F000E8325D96E020E8421DA6EDF6AEF
:1014C800650E7119D8A46BEF0AF06DEF0AF0F1EF11
:1014D8000AF0696B81BF75EF0AF073EF0AF07BEFD2
:1014E8000AF0010E696F806D811FD8B0812B000E44
:1014F800706F020E6F6FACEF0AF08307D8A08407F5
:10150800000E8325D96E020E8421DA6E80C001F0A8
:1015180081C002F0000E046E0A0E036E42EC2AF03F
:101528000150300FDF6E80C001F081C002F0000E64
:10153800046E0A0E036E2CEC29F001C080F002C084
:1015480081F000016F07D8A070077207D8A0730751
:1015580080518111D8A4B3EF0AF0B5EF0AF081EFFA
:101568000AF070BFC2EF0AF0705106E16F05D8B0FB
:10157800C0EF0AF0C2EF0AF081EF0AF08307D8A0A3
:1015880084076951D8A4CBEF0AF0CDEF0AF0D3EF66
:101598000AF0000E656F2B0E646FD7EF0AF0000E8D
:1015A800656F2D0E646F000E8325D96E020E84219F
:1015B800DA6E600093F1DFFF7207D8A07307830724
:1015C800D8A08407000E8325D96E020E8421DA6E16
:1015D800650EDF6E7207D8A07307000E5C6E020EF0
:1015E8005D6E85515C5E86515D5A83515C24016E47
:1015F80084515D20026E000E036E020E046E85C0DB
:1016080005F086C006F017EC2EF000018551835DC9
:10161800856F86518459866F8251D8A416EF0BF0D6
:1016280019EF0BF0010E1AEF0BF0000E836F846BAD
:101638008251D8B422EF0BF024EF0BF030EF0BF00F
:101648008507D8A08607000E8525D96E020E86214B
:10165800DA6E60000BF2DFFF8351725F8451735BB7
:1016680055C011F056C012F0000E8525136E020EFB
:101678008621146E72C015F073C016F026EC2DF09A
:10168800120001010951800B126F09510925146FCD
:1016980008AF51EF0BF053EF0BF054EF0BF0148140
:1016A8001451D8B45AEF0BF05CEF0BF070EF0BF05D
:1016B8001429D8A462EF0BF064EF0BF06CEF0BF079
:1016C800000E066F000E076F000E086F000E096F00
:1016D800088F096B78EF0BF0000E066F000E076F8E
:1016E800000E086F000E096F0D51800B136F125119
:1016F8001319D8B482EF0BF084EF0BF085EF0BF0E1
:10170800128D0D510D25136F0CAF8DEF0BF08FEF70
:101718000BF090EF0BF013811351D8B496EF0BF048
:1017280098EF0BF0ACEF0BF01329D8A49EEF0BF059
:10173800A0EF0BF0A8EF0BF0000E0A6F000E0B6F76
:10174800000E0C6F000E0D6F0C8F0D6BB4EF0BF0CD
:10175800000E0A6F000E0B6F000E0C6F000E0D6F5F
:101768001451135DD8B0BBEF0BF0BDEF0BF0E4EFF5
:101778000BF012ADC2EF0BF0C4EF0BF0C6EF0BF09D
:10178800800E121B14C115F113C114F115C113F108
:1017980006C115F10AC106F115C10AF107C115F113
:1017A8000BC107F115C10BF108C115F10CC108F106
:1017B80015C10CF109C115F10DC109F115C10DF1E2
:1017C800156B145113C10EF10F6B0E5F000E0F5BFA
:1017D8000FBFF8EF0BF00F5109E11A0E0E5DD8A0FC
:1017E800F8EF0BF0FAEF0BF031EF0CF006510711A0
:1017F80008110911D8A403EF0CF006EF0CF0010E44
:1018080007EF0CF0000E156F000E066F000E076F45
:10181800000E086F000E096F13C114F13AEF0CF0B7
:1018280015A119EF0CF01BEF0CF021EF0CF0D8907C
:1018380015310109156F23EF0CF0D890153306A167
:1018480028EF0CF02AEF0CF02BEF0CF0158F093570
:101858000933083307330633142B1351145DD8A00A
:1018680038EF0CF03AEF0CF014EF0CF012BD3FEF2C
:101878000CF041EF0CF081EF0CF01451D8A447EFB5
:101888000CF049EF0CF053EF0CF0000E066F000E51
:10189800076F000E086F000E096FA0EF0DF00A51D8
:1018A80006270B5107230C5108230D51092309A1C1
:1018B80060EF0CF062EF0CF00EEF0DF015A167EF82
:1018C8000CF069EF0CF06FEF0CF0D89015310109AE
:1018D800156F71EF0CF0D890153306A176EF0CF068
:1018E80078EF0CF079EF0CF0158F093509330833D0
:1018F80007330633142B0EEF0DF00A51065D0B511A
:1019080007590C5108590951800A0E6F0D51800A68
:101918000E59D8B092EF0CF094EF0CF0BFEF0CF02A
:1019280006510A5D0E6F07510B590F6F08510C597C
:10193800106F09510D59116FFF0E0E25066FFF0E1E
:101948000F21076FFF0E1021086FFF0E1121096F7D
:10195800800E121B156D1551D8A4B5EF0CF0B7EF1A
:101968000CF0C7EF0CF0010E0627000E0723082322
:101978000923C7EF0CF00A51065F0B51075B0C51A6
:10198800085B0D51095B0651071108110911D8A40C
:10199800D0EF0CF0D2EF0CF007EF0DF01551D8A4F2
:1019A800D8EF0CF0DAEF0CF007EF0DF0000E066F31
:1019B800000E076F000E086F000E096FA0EF0DF004
:1019C800D890063707370837093715AFEEEF0CF010
:1019D800F0EF0CF0F1EF0CF0068115A1F6EF0CF02A
:1019E800F8EF0CF0FCEF0CF0D8801537FEEF0CF098
:1019F800D89015371451D8B404EF0DF006EF0DF058
:101A080007EF0DF0140708AF0CEF0DF00EEF0DF017
:101A1800E4EF0CF0136B15AF14EF0DF016EF0DF0AB
:101A28002EEF0DF015C10EF17F0E0E17D8B41FEF73
:101A38000DF021EF0DF025EF0DF0010E136F2EEFD5
:101A48000DF006A12AEF0DF02CEF0DF02EEF0DF0A2
:101A580021EF0DF01351D8B434EF0DF036EF0DF03F
:101A680061EF0DF0010E0627000E07230823092356
:101A780009A141EF0DF043EF0DF061EF0DF006C144
:101A88000EF107C10FF108C110F109C111F11135AB
:101A9800113310330F330E330EC106F10FC107F1A6
:101AA80010C108F111C109F11429D8B45EEF0DF085
:101AB80060EF0DF061EF0DF0142B1429D8B467EF27
:101AC8000DF069EF0DF071EF0DF01451D8A46FEF20
:101AD8000DF071EF0DF082EF0DF0000E066F000EA5
:101AE800076F000E086F000E096F1451D8A47FEF1E
:101AF8000DF081EF0DF082EF0DF0126B14A187EF5E
:101B08000DF089EF0DF08CEF0DF0088F8DEF0DF0D3
:101B1800089FD8901431096F12AF95EF0DF097EF29
:101B28000DF098EF0DF0098F06C106F107C107F116
:101B380008C108F109C109F112000450800B0D6EAB
:101B4800045004240F6E03AEACEF0DF0AEEF0DF0B1
:101B5800AFEF0DF00F800F50D8B4B5EF0DF0B7EF21
:101B68000DF0CBEF0DF00F28D8A4BDEF0DF0BFEFAF
:101B78000DF0C7EF0DF0000E016E000E026E000EA4
:101B8800036E000E046E038E046AD3EF0DF0000E90
:101B9800016E000E026E000E036E000E046E0850F9
:101BA800800B0E6E0D500E18D8B4DDEF0DF0DFEF80
:101BB8000DF0E0EF0DF00D8C085008240E6E07AE06
:101BC800E8EF0DF0EAEF0DF0EBEF0DF00E800E50A0
:101BD800D8B4F1EF0DF0F3EF0DF007EF0EF00E288B
:101BE800D8A4F9EF0DF0FBEF0DF003EF0EF0000EA7
:101BF800056E000E066E000E076E000E086E078E4C
:101C0800086A0FEF0EF0000E056E000E066E000E4D
:101C1800076E000E086E0F500E5CD8B016EF0EF06F
:101C280018EF0EF03FEF0EF00DAC1DEF0EF01FEFAA
:101C38000EF021EF0EF0800E0D1A0FC010F00EC03E
:101C48000FF010C00EF001C010F005C001F010C078
:101C580005F002C010F006C002F010C006F003C084
:101C680010F007C003F010C007F004C010F008C05F
:101C780004F010C008F0106A0F500EC009F00A6A8C
:101C8800095E000E0A5A0ABE53EF0EF00A5009E127
:101C98001A0E095CD8A053EF0EF055EF0EF08CEF3A
:101CA8000EF00150021003100410D8A45EEF0EF0DD
:101CB80061EF0EF0010E62EF0EF0000E106E000ED6
:101CC800016E000E026E000E036E000E046E0EC052
:101CD8000FF095EF0EF010A074EF0EF076EF0EF007
:101CE8007CEF0EF0D89010300109106E7EEF0EF0E8
:101CF800D890103201A083EF0EF085EF0EF086EF3A
:101D08000EF0108E043404320332023201320F2AEC
:101D18000E500F5CD8A093EF0EF095EF0EF06FEF1A
:101D28000EF00DBC9AEF0EF09CEF0EF0DCEF0EF00B
:101D38000F50D8A4A2EF0EF0A4EF0EF0AEEF0EF005
:101D4800000E016E000E026E000E036E000E046E91
:101D5800FBEF0FF005500126065002220750032220
:101D68000850042204A0BBEF0EF0BDEF0EF069EF9F
:101D78000FF010A0C2EF0EF0C4EF0EF0CAEF0EF095
:101D8800D89010300109106ECCEF0EF0D8901032B8
:101D980001A0D1EF0EF0D3EF0EF0D4EF0EF0108EBD
:101DA800043404320332023201320F2A69EF0FF091
:101DB8000550015C06500258075003580450800A29
:101DC800096E0850800A0958D8B0EDEF0EF0EFEF11
:101DD8000EF01AEF0FF00150055C096E025006581C
:101DE8000A6E035007580B6E045008580C6EFF0E0D
:101DF8000924016EFF0E0A20026EFF0E0B20036EEF
:101E0800FF0E0C20046E800E0D1A106C1050D8A412
:101E180010EF0FF012EF0FF022EF0FF0010E012676
:101E2800000E02220322042222EF0FF00550015E69
:101E38000650025A0750035A0850045A015002101B
:101E480003100410D8A42BEF0FF02DEF0FF062EF62
:101E58000FF01050D8A433EF0FF035EF0FF062EF0A
:101E68000FF0000E016E000E026E000E036E000EE3
:101E7800046EFBEF0FF0D8900136023603360436B5
:101E880010AE49EF0FF04BEF0FF04CEF0FF0018061
:101E980010A051EF0FF053EF0FF057EF0FF0D8806D
:101EA800103659EF0FF0D89010360F50D8B45FEFB6
:101EB8000FF061EF0FF062EF0FF00F0603AE67EF60
:101EC8000FF069EF0FF03FEF0FF00E6A10AE6FEFF3
:101ED8000FF071EF0FF089EF0FF010C009F07F0ECF
:101EE8000916D8B47AEF0FF07CEF0FF080EF0FF0FF
:101EF800010E0E6E89EF0FF001A085EF0FF087EF4E
:101F08000FF089EF0FF07CEF0FF00E50D8B48FEF81
:101F18000FF091EF0FF0BCEF0FF0010E0126000E4D
:101F280002220322042204A09CEF0FF09EEF0FF080
:101F3800BCEF0FF001C009F002C00AF003C00BF0BB
:101F480004C00CF00C340C320B320A32093209C0CE
:101F580001F00AC002F00BC003F00CC004F00F2817
:101F6800D8B4B9EF0FF0BBEF0FF0BCEF0FF00F2AAA
:101F78000F28D8B4C2EF0FF0C4EF0FF0CCEF0FF07A
:101F88000F50D8A4CAEF0FF0CCEF0FF0DDEF0FF031
:101F9800000E016E000E026E000E036E000E046E3F
:101FA8000F50D8A4DAEF0FF0DCEF0FF0DDEF0FF0F1
:101FB8000D6A0FA0E2EF0FF0E4EF0FF0E7EF0FF07C
:101FC800038EE8EF0FF0039ED8900F30046E0DAE2D
:101FD800F0EF0FF0F2EF0FF0F3EF0FF0048E01C007
:101FE80001F002C002F003C003F004C004F01200C4
:101FF80001011751800B206F17511725266F16AF57
:1020080008EF10F00AEF10F00BEF10F026812651C0
:10201800D8B411EF10F013EF10F026EF10F02629C6
:10202800D8A419EF10F01BEF10F023EF10F0000EFA
:10203800146F000E156F000E166F000E176F168FB7
:102048002EEF10F0000E146F000E156F000E166FB5
:10205800000E176F1B51800B201B1B511B25256F72
:102068001AAF39EF10F03BEF10F03CEF10F025817C
:102078002551D8B442EF10F044EF10F057EF10F0AC
:102088002529D8A44AEF10F04CEF10F054EF10F0C7
:10209800000E186F000E196F000E1A6F000E1B6FDE
:1020A8001A8F5FEF10F0000E186F000E196F000EF8
:1020B8001A6F000E1B6F2551D8B465EF10F067EF4B
:1020C80010F06FEF10F02651D8A46DEF10F06FEFFD
:1020D80010F079EF10F0000E146F000E156F000E5F
:1020E800166F000E176F21EF12F01A5114036F00CC
:1020F800CCFF2BF16F00D0FF2CF12B51216F226BFD
:10210800236B246B2C51276F286B296B2A6B195171
:1021180015036F00CCFF2BF16F00D0FF2CF12B5172
:102128002127000E2223232324232C512727000EA6
:10213800282329232A23185116036F00CCFF2BF1DB
:102148006F00D0FF2CF12B512127000E22232323CF
:1021580024232C512727000E282329232A2323C18F
:1021680024F122C123F121C122F1216B1851150359
:102178006F00CCFF2BF16F00D0FF2CF12B512127E2
:102188002C512223000E2323000E2423195114035B
:102198006F00CCFF2BF16F00D0FF2CF12B512127C2
:1021A8002C512223000E2323000E242323C124F1C3
:1021B80022C123F121C122F1216B185114036F00B0
:1021C800CCFF2BF16F00D0FF2CF12B5121272C5184
:1021D8002223000E2323000E24231A5115036F0017
:1021E800CCFF2BF16F00D0FF2CF12B5127272C515E
:1021F8002823000E2923000E2A23195116036F00E5
:10220800CCFF2BF16F00D0FF2CF12B5127272C513D
:102218002823000E2923000E2A231A5116036F00C3
:10222800CCFF2BF16F00D0FF2CF12B511C6F2C51E0
:102238001D6F1E6B1F6B1EC11FF11DC11EF11CC13E
:102248001DF11C6B1C5127271D5128231E512923C2
:102258001F512A2321C11CF122C11DF123C11EF1E6
:1022680024C11FF1190E3EEF11F0D8901F331E3311
:102278001D331C33E82E39EF11F01C5127271D514F
:1022880028231E5129231F512A2323C124F122C1A7
:1022980023F121C122F1216B255126C11CF11D6BAF
:1022A8001C27000E1D23820E1C252B6FFF0E1D21DF
:1022B8002C6F74EF11F0D8902737283729372A3731
:1022C80024AF69EF11F06BEF11F06CEF11F027817B
:1022D800D89021372237233724372B07D8A02C074B
:1022E80029AF79EF11F07BEF11F05FEF11F0256B5B
:1022F80024AF81EF11F083EF11F0A7EF11F0FF0E7B
:1023080021151C6FFF0E22151D6FFF0E23151E6F62
:102318007F0E24151F6F1C511D111E111F11D8B4DB
:1023280098EF11F09AEF11F09EEF11F0010E256F62
:10233800A7EF11F027A1A3EF11F0A5EF11F0A7EF78
:1023480011F09AEF11F02551D8B4ADEF11F0AFEFBD
:1023580011F0D3EF11F0010E2727000E28232923AF
:102368002A232AA1BAEF11F0BCEF11F0D3EF11F034
:1023780027C11CF128C11DF129C11EF12AC11FF175
:102388001F351F331E331D331C331CC127F11DC1DC
:1023980028F11EC129F11FC12AF12B4B2C2B2CBF70
:1023A800DEEF11F02C5108E12B29D8A0DEEF11F057
:1023B800E0EF11F0EAEF11F0000E276F000E286F22
:1023C800800E296F7F0E2A6F17EF12F02CBFF7EFE0
:1023D80011F02C5106E12B05D8B0F5EF11F0F7EF0D
:1023E80011F002EF12F0000E276F000E286F000E9A
:1023F800296F000E2A6F206B17EF12F02BC126F100
:10240800FF0E2717FF0E28177F0E2917000E2A1711
:1024180026A111EF12F013EF12F014EF12F0298F2A
:10242800D89026312A6F20512A1327C114F128C1C8
:1024380015F129C116F12AC117F112001250800BAB
:102448001B6E12501224216E11AE2DEF12F02FEFD9
:1024580012F030EF12F021802150D8B436EF12F08C
:1024680038EF12F04BEF12F02128D8A43EEF12F00B
:1024780040EF12F048EF12F0000E0F6E000E106ED3
:10248800000E116E000E126E118E53EF12F0000E38
:102498000F6E000E106E000E116E000E126E1650AA
:1024A800800B1B1A16501624206E15AE5EEF12F024
:1024B80060EF12F061EF12F020802050D8B467EF7F
:1024C80012F069EF12F07CEF12F02028D8A46FEF19
:1024D80012F071EF12F079EF12F0000E136E000E89
:1024E800146E000E156E000E166E158E84EF12F027
:1024F800000E136E000E146E000E156E000E166E92
:102508002050D8B48AEF12F08CEF12F094EF12F04A
:102518002150D8A492EF12F094EF12F09EEF12F02F
:10252800000E0F6E000E106E000E116E000E126E71
:1025380046EF14F015500F026F00CCFF26F06F0025
:10254800D0FF27F026501C6E1D6A1E6A1F6A27508E
:10255800226E236A246A256A145010026F00CCFF89
:1025680026F06F00D0FF27F026501C26000E1D22F3
:102578001E221F2227502226000E23222422252233
:10258800135011026F00CCFF26F06F00D0FF27F028
:1025980026501C26000E1D221E221F2227502226EE
:1025A800000E2322242225221EC01FF01DC01EF06B
:1025B8001CC01DF01C6A135010026F00CCFF26F0DF
:1025C8006F00D0FF27F026501C2627501D22000E32
:1025D8001E22000E1F2214500F026F00CCFF26F09F
:1025E8006F00D0FF27F026501C2627501D22000E12
:1025F8001E22000E1F221EC01FF01DC01EF01CC090
:102608001DF01C6A13500F026F00CCFF26F06F00FC
:10261800D0FF27F026501C2627501D22000E1E2210
:10262800000E1F22155010026F00CCFF26F06F001D
:10263800D0FF27F02650222627502322000E2422DE
:10264800000E2522145011026F00CCFF26F06F00F7
:10265800D0FF27F02650222627502322000E2422BE
:10266800000E2522155011026F00CCFF26F06F00D6
:10267800D0FF27F02650176E2750186E196A1A6A6D
:1026880019C01AF018C019F017C018F0176A1750B7
:10269800222618502322195024221A5025221CC001
:1026A80017F01DC018F01EC019F01FC01AF0190E3F
:1026B80063EF13F0D8901A32193218321732E82E15
:1026C8005EEF13F0175022261850232219502422A7
:1026D8001A5025221EC01FF01DC01EF01CC01DF080
:1026E8001C6A205021C017F0186A1726000E1822FD
:1026F800820E1724266EFF0E1820276E99EF13F00E
:10270800D89022362336243625361FAE8EEF13F0A6
:1027180090EF13F091EF13F02280D8901C361D36FD
:102728001E361F362606D8A0270624AE9EEF13F0C5
:10273800A0EF13F084EF13F0206A1FAEA6EF13F09A
:10274800A8EF13F0CCEF13F0FF0E1C14176EFF0E5A
:102758001D14186EFF0E1E14196E7F0E1F141A6EAC
:102768001750181019101A10D8B4BDEF13F0BFEF96
:1027780013F0C3EF13F0010E206ECCEF13F022A07C
:10278800C8EF13F0CAEF13F0CCEF13F0BFEF13F05C
:102798002050D8B4D2EF13F0D4EF13F0F8EF13F0C1
:1027A800010E2226000E23222422252225A0DFEF57
:1027B80013F0E1EF13F0F8EF13F022C017F023C085
:1027C80018F024C019F025C01AF01A341A32193238
:1027D8001832173217C022F018C023F019C024F09D
:1027E8001AC025F0264A272A27BE03EF14F02750DF
:1027F80008E12628D8A003EF14F005EF14F00FEF36
:1028080014F0000E226E000E236E800E246E7F0ED2
:10281800256E3CEF14F027BE1CEF14F0275006E19C
:102828002604D8B01AEF14F01CEF14F027EF14F0B8
:10283800000E226E000E236E000E246E000E256E12
:102848001B6A3CEF14F026C021F0FF0E2216FF0E83
:1028580023167F0E2416000E251621A036EF14F03D
:1028680038EF14F039EF14F0248ED8902130256E0B
:102878001B50251222C00FF023C010F024C011F005
:1028880025C012F01200A6EC31F0E5EF15F0060EA7
:10289800086F000E5DEC2DF0F20E0101086FFF0EBF
:1028A800096F7AEC2CF0000E0101086F010E5DEC47
:1028B8002DF0090E0101086FFF0E096F7AEC2CF05C
:1028C800000E0101086F020E5DEC2DF01A0E0101D9
:1028D800086FFF0E096F7AEC2CF00F0E0101086FDC
:1028E800020E5DEC2DF0DF0E26EC32F02CEF16F028
:1028F800000E086F000E5DEC2DF0ED0E0101086F63
:10290800FF0E096F7AEC2CF0000E0101086F010E22
:102918005DEC2DF03A0E0101086FFF0E096F7AEC9D
:102928002CF02CEF16F0000E086F000E5DEC2DF069
:10293800870E0101086FFF0E096F7AEC2CF02CEF5F
:1029480016F0000E086F000E5DEC2DF0690E010107
:10295800086FFF0E096F7AEC2CF00F0E0101086F5B
:10296800010E5DEC2DF07E0E26EC32F02CEF16F009
:10297800000E086F000E5DEC2DF0B20E0101086F1D
:10298800FF0E096F7AEC2CF00F0E0101086F010E93
:102998005DEC2DF07E0E26EC32F02CEF16F0000EDA
:1029A800086F000E5DEC2DF0C00E0101086FFF0EE0
:1029B800096F7AEC2CF00F0E0101086F010E5DEC27
:1029C8002DF07E0E26EC32F02CEF16F0000E086F7C
:1029D800000E5DEC2DF02A0E0101086FFF0E096F45
:1029E8007AEC2CF00F0E0101086F010E5DEC2DF052
:1029F8007E0E26EC32F02CEF16F0000E086F000E5B
:102A08005DEC2DF0780E0101086FFF0E096F7AEC6E
:102A18002CF00F0E0101086F010E5DEC2DF07E0EFB
:102A280026EC32F02CEF16F0000E086F000E5DEC6D
:102A38002DF04A0E0101086FFF0E096F7AEC2CF099
:102A48000F0E0101086F010E5DEC2DF07E0E26ECD5
:102A580032F02CEF16F0000E086F000E5DEC2DF032
:102A6800A40E0101086FFF0E096F7AEC2CF00F0E0F
:102A78000101086F010E5DEC2DF07E0E26EC32F0A0
:102A88002CEF16F0000E086F000E5DEC2DF05A0EBC
:102A98000101086FFF0E096F7AEC2CF00F0E01018F
:102AA800086F010E5DEC2DF07E0E26EC32F02CEF57
:102AB80016F0000E086F000E5DEC2DF0CE0E010131
:102AC800086FFF0E096F7AEC2CF00F0E0101086FEA
:102AD800010E5DEC2DF07F0E26EC32F02CEF16F097
:102AE800000E086F000E5DEC2DF0D70E0101086F87
:102AF800FF0E096F7AEC2CF0000E0101086F010E31
:102B08005DEC2DF09AEC2BF046C1D0F147C1D1F124
:102B180048C1D2F149C1D3F1C00E0101A96F010E1C
:102B2800AA6FE60EAB6FFF0EAC6FD0C1ADF1D1C18D
:102B3800AEF1D2C1AFF1D3C1B0F148EC2FF0C00E65
:102B48000101086F010E096F7AEC2CF0000E0101EB
:102B5800086F020E5DEC2DF0960E0101086FFF0E56
:102B6800096F7AEC2CF0000E0101086F030E5DEC82
:102B78002DF09AEC2BF046C150F147C151F148C1F4
:102B880052F149C153F1BEEC22F050C1D4F151C108
:102B9800D5F1C00E0101A96F010EAA6FDF0EAB6F50
:102BA800FF0EAC6FD4C1ADF1D5C1AEF148EC2FF03A
:102BB800C00E0101086F010E096F7AEC2CF02CEFA2
:102BC80016F00001EB510101BE6FBF6BBF51000A47
:102BD800D8B4F1EF15F02CEF16F0BE51000AD8B4B6
:102BE8004BEF14F0010AD8B47CEF14F0030AD8B400
:102BF80097EF14F0010AD8B42CEF16F0070AD8B4EE
:102C0800A5EF14F0010AD8B4BCEF14F0030AD8B445
:102C1800D3EF14F0010AD8B4EAEF14F00F0AD8B4CD
:102C280001EF15F0010AD8B418EF15F0030AD8B46B
:102C38002FEF15F0010AD8B446EF15F0070AD8B4FB
:102C48005DEF15F0010AD8B474EF15F02CEF16F00B
:102C5800120001013051800B3D6F30513025446F17
:102C68002FAF39EF16F03BEF16F03CEF16F044812A
:102C78004451D8B442EF16F044EF16F058EF16F06E
:102C88004429D8A44AEF16F04CEF16F054EF16F08A
:102C9800000E2D6F000E2E6F000E2F6F000E306F7E
:102CA8002F8F306B60EF16F0000E2D6F000E2E6F19
:102CB800000E2F6F000E306F3451800B3D1B3451C6
:102CC8003425456F33AF6BEF16F06DEF16F06EEFEE
:102CD80016F045814551D8B474EF16F076EF16F02A
:102CE8008AEF16F04529D8A47CEF16F07EEF16F08F
:102CF80086EF16F0000E316F000E326F000E336F44
:102D0800000E346F338F346B92EF16F0000E316F74
:102D1800000E326F000E336F000E346F31513211D6
:102D280033113411D8A49BEF16F09DEF16F0B5EFD0
:102D380016F0000E2D6F000E2E6F000E2F6F000E76
:102D4800306F800E2F137F0E30133D5130132DC17D
:102D58002DF12EC12EF12FC12FF130C130F1F5EF39
:102D680017F04451D8A4BBEF16F0BDEF16F0C7EF2B
:102D780016F0000E2D6F000E2E6F000E2F6F000E36
:102D8800306FF5EF17F0455144C135F1366B355FBB
:102D9800000E365B7F0E35253E6F000E36213F6FE5
:102DA8002DC139F12EC13AF12FC13BF130C13CF1AF
:102DB800000E2D6F000E2E6F000E2F6F000E306F5D
:102DC800000E406F000E416F000E426F000E436F01
:102DD800456B27EF17F04551D8B4F5EF16F0F7EF2C
:102DE80016F00EEF17F0D89039373A373B373C37A3
:102DF800D8902D372E372F37303743AF06EF17F0DF
:102E080008EF17F009EF17F02D81D89040374137B8
:102E1800423743373151395D32513A5933513B5971
:102E280034513C59D8A01BEF17F01DEF17F026EFCF
:102E380017F0438D3151395F32513A5B33513B5B67
:102E480034513C5B452B190E45652DEF17F02FEFDC
:102E580017F0EFEF16F039513A113B113C11D8B485
:102E680038EF17F03AEF17F052EF17F0408152EFB2
:102E780017F0D8902D372E372F37303743AF47EF1D
:102E880017F049EF17F04AEF17F02D81D890403727
:102E98004137423743373E07D8A03F072FAF57EF98
:102EA80017F059EF17F03DEF17F0456B43AF5FEFA1
:102EB80017F061EF17F085EF17F0FF0E4015356F2B
:102EC800FF0E4115366FFF0E4215376F7F0E431503
:102ED800386F3551361137113811D8B476EF17F0ED
:102EE80078EF17F07CEF17F0010E456F85EF17F0BC
:102EF8002DA181EF17F083EF17F085EF17F078EF2A
:102F080017F04551D8B48BEF17F08DEF17F0B1EFEC
:102F180017F0010E2D27000E2E232F23302330A16A
:102F280098EF17F09AEF17F0B1EF17F02DC135F1C0
:102F38002EC136F12FC137F130C138F13835383369
:102F480037333633353335C12DF136C12EF137C11C
:102F58002FF138C130F13E4B3F2B3FBFBCEF17F08C
:102F68003F5108E13E29D8A0BCEF17F0BEEF17F09B
:102F7800C9EF17F0000E3F6F3E69000E2D6F000E6F
:102F88002E6F000E2F6F000E306F3FBFD6EF17F079
:102F98003F5106E13E05D8B0D4EF17F0D6EF17F051
:102FA800E3EF17F0000E3F6F000E3E6F000E2D6F1F
:102FB800000E2E6F000E2F6F000E306F3D6B3EC15E
:102FC80044F144A1EAEF17F0ECEF17F0EFEF17F038
:102FD8002F8FF0EF17F02F9FD8904431306FA9EF63
:102FE80016F012002B50800B386E2B502B243F6E9E
:102FF8002AAE01EF18F003EF18F004EF18F03F8045
:103008003F50D8B40AEF18F00CEF18F020EF18F082
:103018003F28D8A412EF18F014EF18F01CEF18F09E
:10302800000E286E000E296E000E2A6E000E2B6E02
:103038002A8E2B6A28EF18F0000E286E000E296ED3
:10304800000E2A6E000E2B6E2F50800B381A2F5050
:103058002F24406E2EAE33EF18F035EF18F036EF10
:1030680018F040804050D8B43CEF18F03EEF18F00C
:1030780052EF18F04028D8A444EF18F046EF18F0A3
:103088004EEF18F0000E2C6E000E2D6E000E2E6EF8
:10309800000E2F6E2E8E2F6A5AEF18F0000E2C6E2F
:1030A800000E2D6E000E2E6E000E2F6E2C502D1061
:1030B8002E102F10D8A463EF18F065EF18F07DEFED
:1030C80018F0000E286E000E296E000E2A6E000EF3
:1030D8002B6E800E2A127F0E2B1238502B1228C00E
:1030E80028F029C029F02AC02AF02BC02BF0BDEF08
:1030F80019F03F50D8A483EF18F085EF18F08FEF40
:1031080018F0000E286E000E296E000E2A6E000EB2
:103118002B6EBDEF19F040503FC030F0316A305E81
:10312800000E315A7F0E3024396E000E31203A6E6F
:1031380028C034F029C035F02AC036F02BC037F04B
:10314800000E286E000E296E000E2A6E000E2B6EE1
:10315800000E3B6E000E3C6E000E3D6E000E3E6E85
:10316800406AEFEF18F04050D8B4BDEF18F0BFEF49
:1031780018F0D6EF18F0D89034363536363637365C
:10318800D890283629362A362B363EAECEEF18F0A0
:10319800D0EF18F0D1EF18F02880D8903B363C36A5
:1031A8003D363E362C50345C2D5035582E5036580E
:1031B8002F503758D8A0E3EF18F0E5EF18F0EEEFEE
:1031C80018F03E8C2C50345E2D50355A2E50365AFD
:1031D8002F50375A402A190E4064F5EF18F0F7EFD0
:1031E80018F0B7EF18F03450351036103710D8B43F
:1031F80000EF19F002EF19F01AEF19F03B801AEFFF
:1032080019F0D890283629362A362B363EAE0FEFDD
:1032180019F011EF19F012EF19F02880D8903B3609
:103228003C363D363E363906D8A03A062AAE1FEF60
:1032380019F021EF19F005EF19F0406A3EAE27EFBB
:1032480019F029EF19F04DEF19F0FF0E3B14306E0D
:10325800FF0E3C14316EFF0E3D14326E7F0E3E148D
:10326800336E3050311032103310D8B43EEF19F0AD
:1032780040EF19F044EF19F0010E406E4DEF19F0D0
:1032880028A049EF19F04BEF19F04DEF19F040EF76
:1032980019F04050D8B453EF19F055EF19F079EF01
:1032A80019F0010E2826000E29222A222B222BA0F3
:1032B80060EF19F062EF19F079EF19F028C030F0DB
:1032C80029C031F02AC032F02BC033F03334333206
:1032D80032323132303230C028F031C029F032C0B9
:1032E8002AF033C02BF0394A3A2A3ABE84EF19F053
:1032F8003A5008E13928D8A084EF19F086EF19F080
:1033080091EF19F0000E3A6E3968000E286E000E23
:10331800296E000E2A6E000E2B6E3ABE9EEF19F033
:103328003A5006E13904D8B09CEF19F09EEF19F035
:10333800ABEF19F0000E3A6E000E396E000E286ED3
:10334800000E296E000E2A6E000E2B6E386A39C0E8
:103358003FF03FA0B2EF19F0B4EF19F0B7EF19F052
:103368002A8EB8EF19F02A9ED8903F302B6E71EF55
:1033780018F01200C1EC31F035EF1BF0060E036EA9
:10338800000E1DEC2FF0F20E036EFF0E046EEDEC36
:103398002CF0000E036E010E1DEC2FF0090E036ECB
:1033A800FF0E046EEDEC2CF0000E036E020E1DEC09
:1033B8002FF01A0E036EFF0E046EEDEC2CF00F0EBC
:1033C800036E020E1DEC2FF0DF0E7EEC32F07BEF69
:1033D8001BF0000E036E000E1DEC2FF0ED0E036EB9
:1033E800FF0E046EEDEC2CF0000E036E010E1DECCA
:1033F8002FF03A0E036EFF0E046EEDEC2CF07BEF0F
:103408001BF0000E036E000E1DEC2FF0870E036EEE
:10341800FF0E046EEDEC2CF07BEF1BF0000E036E3C
:10342800000E1DEC2FF0690E036EFF0E046EEDEC1E
:103438002CF00F0E036E010E1DEC2FF07E0E7EECAD
:1034480032F07BEF1BF0000E036E000E1DEC2FF028
:10345800B20E036EFF0E046EEDEC2CF00F0E036E31
:10346800010E1DEC2FF07E0E7EEC32F07BEF1BF090
:10347800000E036E000E1DEC2FF0C00E036EFF0E43
:10348800046EEDEC2CF00F0E036E010E1DEC2FF008
:103498007E0E7EEC32F07BEF1BF0000E036E000E0A
:1034A8001DEC2FF02A0E036EFF0E046EEDEC2CF0CF
:1034B8000F0E036E010E1DEC2FF07E0E7EEC32F027
:1034C8007BEF1BF0000E036E000E1DEC2FF0780E44
:1034D800036EFF0E046EEDEC2CF00F0E036E010E62
:1034E8001DEC2FF07E0E7EEC32F07BEF1BF0000E11
:1034F800036E000E1DEC2FF04A0E036EFF0E046ED5
:10350800EDEC2CF00F0E036E010E1DEC2FF07E0E6D
:103518007EEC32F07BEF1BF0000E036E000E1DEC0C
:103528002FF0A40E036EFF0E046EEDEC2CF00F0EC0
:10353800036E010E1DEC2FF07E0E7EEC32F07BEF59
:103548001BF0000E036E000E1DEC2FF05A0E036EDA
:10355800FF0E046EEDEC2CF00F0E036E010E1DEC49
:103568002FF07E0E7EEC32F07BEF1BF0000E036E28
:10357800000E1DEC2FF0CE0E036EFF0E046EEDEC68
:103588002CF00F0E036E010E1DEC2FF07F0E7EEC5B
:1035980032F07BEF1BF0000E036E000E1DEC2FF0D7
:1035A800D70E036EFF0E046EEDEC2CF0000E036ECA
:1035B800010E1DEC2FF0E8EC2BF041C0CDF042C01D
:1035C800CEF043C0CFF044C0D0F0BD0E0001A66FCE
:1035D800A76BE60EA86FFF0EA96FCDC0AAF0CEC0EC
:1035E800ABF0CFC0ACF0D0C0ADF097EC2FF0BD0E73
:1035F800036E046AEDEC2CF0000E036E020E1DEC57
:103608002FF0960E036EFF0E046EEDEC2CF0000EFC
:10361800036E030E1DEC2FF0E8EC2BF041C04BF0CD
:1036280042C04CF043C04DF044C04EF0C5EC23F00E
:103638004BC0D1F04CC0D2F0BD0E0001A66FA76BF5
:10364800DF0EA86FFF0EA96FD1C0AAF0D2C0ABF0F1
:1036580097EC2FF0BD0E036E046AEDEC2CF07BEFB7
:103668001BF00001EB51BB6FBC6BBC51000AD8B416
:1036780040EF1BF07BEF1BF0BB51000AD8B4C2EF40
:1036880019F0010AD8B4EDEF19F0030AD8B405EF20
:103698001AF0010AD8B47BEF1BF0070AD8B412EF6E
:1036A8001AF0010AD8B427EF1AF0030AD8B43CEF8D
:1036B8001AF0010AD8B451EF1AF00F0AD8B466EF1D
:1036C8001AF0010AD8B47BEF1AF0030AD8B490EFC5
:1036D8001AF0010AD8B4A5EF1AF0070AD8B4BAEF5D
:1036E8001AF0010AD8B4CFEF1AF07BEF1BF01200E2
:1036F800600053F6D9FF600057F6DAFF6F007BFFD2
:10370800F6FF6F0077FFF7FFF86A0800F550250A03
:10371800D8A491EF1BF093EF1BF0CFEF1CF06000E3
:1037280053F6D9FF600057F6DAFFDE2A000EDD22D5
:10373800000E0001DE6F000EDD6FDDC0E9F0DF690D
:10374800E069600053F6D9FF600057F6DAFF6F00B2
:103758007BFFF6FF6F0077FFF7FFF86A0800F55068
:103768002E0AD8A4BAEF1BF0BCEF1BF0D3EF1BF066
:10377800600053F6D9FF600057F6DAFFDE2A000E24
:10378800DD2294C106F195C107F196C108F197C1F0
:1037980009F1C9EC25F006C1DFF007C1E0F06000CF
:1037A80053F6D9FF600057F6DAFF6F0078FF9FF1F4
:1037B8006F0074FFA0F160007FF6F6FF600083F6EB
:1037C800F7FFF86A08006F00D4FF9EF1F7EF1BF0CF
:1037D8009F4BA02B0BEF1CF06C0E9E6F0BEF1CF099
:1037E8009E6B0BEF1CF001019E514C0AD8B4ECEF14
:1037F8001BF0290AD8B4F0EF1BF0030AD8B4F0EF95
:103808001BF00A0AD8B4ECEF1BF0F4EF1BF06000D1
:103818007FF6F6FF600083F6F7FFF86A0800F550B8
:10382800650AD8B41AEF1CF01CEF1CF077EF1CF0F7
:1038380060007FF6F6FF600083F6F7FFF86A08007D
:10384800F550660AD8A42BEF1CF02DEF1CF0C4EF3E
:103858001CF077EF1CF060005BF6D9FF60005FF6A4
:10386800DAFF6F007CFF98F1040EDE266F007CFF04
:1038780099F1000EDD22600063F6D9FF600067F65B
:10388800DAFF6F0078FF9AF16F0078FF9BF16F0005
:1038980078FF9CF16F0078FF9DF182EF1CF06000CB
:1038A8005BF6D9FF60005FF6DAFF6F007CFF98F1E6
:1038B800040EDE266F007CFF99F1000EDD22600009
:1038C80063F6D9FF600067F6DAFF6F0078FF9AF1B8
:1038D8006F0078FF9BF16F0078FF9CF16F0078FF15
:1038E8009DF182EF1CF09E514C0AD8B453EF1CF0A6
:1038F800200AD8B42FEF1CF082EF1CF0010E9F2590
:10390800986F000EA021996F600053F6D9FF6000F0
:1039180057F6DAFF600063F6DEFF600067F6DDFF4A
:10392800B1EF1CF092C15AF193C15BF19AC15CF1FD
:103938009BC15DF19CC15EF19DC15FF160007FF6A6
:10394800F6FF600083F6F7FFF86A08006F00D4FFFF
:1039580060F10FEC00F0E9EF1CF060007FF6F6FF75
:10396800600083F6F7FFF86A0800F550650AD8B4D6
:1039780096EF1CF0030AD8B496EF1CF0C4EF1CF0C5
:10398800600053F6D9FF600057F6DAFFDE2A000E12
:10399800DD22E9EF1CF0600053F6D9FF600057F60E
:1039A800DAFF6F007BFFF6FF6F0077FFF7FFF86A1B
:1039B8000800F5500101066F076B92C108F193C129
:1039C80009F12CEC27F0C4EF1CF01200600047F25C
:1039D800D9FF60004BF2DAFF6F007BFFF6FF6F0044
:1039E80077FFF7FFF86A0800F550250AD8A4FFEF1B
:1039F8001CF001EF1DF03DEF1EF0600047F2D9FF0B
:103A080060004BF2DAFFDE2A000EDD22000E000114
:103A1800DE6F000EDD6FDDC0E9F0DF69E069600090
:103A280047F2D9FF60004BF2DAFF6F007BFFF6FF29
:103A38006F0077FFF7FFF86A0800F5502E0AD8A440
:103A480028EF1DF02AEF1DF041EF1DF0600047F24E
:103A5800D9FF60004BF2DAFFDE2A000EDD2291C0AA
:103A680001F092C002F093C003F094C004F044EC5B
:103A780026F001C0DFF002C0E0F0600047F2D9FF95
:103A880060004BF2DAFF6F0078FF9CF06F0074FF64
:103A98009DF0600073F2F6FF600077F2F7FFF86AB6
:103AA80008006F00D4FF9BF065EF1DF09C4B9D2B29
:103AB80079EF1DF06C0E9B6F79EF1DF09B6B79EF22
:103AC8001DF000019B514C0AD8B45AEF1DF0290A89
:103AD800D8B45EEF1DF0030AD8B45EEF1DF00A0AF1
:103AE800D8B45AEF1DF062EF1DF0600073F2F6FFD4
:103AF800600077F2F7FFF86A0800F550650AD8B455
:103B080088EF1DF08AEF1DF0E5EF1DF0600073F2FD
:103B1800F6FF600077F2F7FFF86A0800F550660ACA
:103B2800D8A499EF1DF09BEF1DF032EF1EF0E5EFE2
:103B38001DF060004FF2D9FF600053F2DAFF6F000A
:103B48007CFF95F0040EDE266F007CFF96F0000ED9
:103B5800DD22600057F2D9FF60005BF2DAFF6F00E8
:103B680078FF97F06F0078FF98F06F0078FF99F072
:103B78006F0078FF9AF0F0EF1DF060004FF2D9FF68
:103B8800600053F2DAFF6F007CFF95F0040EDE262A
:103B98006F007CFF96F0000EDD22600057F2D9FF1F
:103BA80060005BF2DAFF6F0078FF97F06F0078FF34
:103BB80098F06F0078FF99F06F0078FF9AF0F0EFB7
:103BC8001DF09B514C0AD8B4C1EF1DF0200AD8B49F
:103BD8009DEF1DF0F0EF1DF0010E9C25956F000E76
:103BE8009D21966F600047F2D9FF60004BF2DAFF23
:103BF800600057F2DEFF60005BF2DDFF1FEF1EF092
:103C08008FC055F090C056F097C057F098C058F044
:103C180099C059F09AC05AF0600073F2F6FF60003C
:103C280077F2F7FFF86A08006F00D4FF5BF0AEEC9C
:103C380005F056EF1EF0600073F2F6FF600077F2B1
:103C4800F7FFF86A0800F550650AD8B404EF1EF0CB
:103C5800030AD8B404EF1EF032EF1EF0600047F2FA
:103C6800D9FF60004BF2DAFFDE2A000EDD2256EFA4
:103C78001EF0600047F2D9FF60004BF2DAFF6F00D8
:103C88007BFFF6FF6F0077FFF7FFF86A0800F55033
:103C9800016E026A8FC003F090C004F099EC27F01F
:103CA80032EF1EF01200D5C056F1D6C057F1D7C07A
:103CB80058F1D8C059F146C156F147C157F148C12A
:103CC80058F149C159F1810E01014A6FFF0E4B6F3E
:103CD80056C14CF157C14DF158C14EF159C14FF180
:103CE800180E7CEF1EF0D8904F334E334D334C33C3
:103CF800E82E77EF1EF04C514A25546F000E4B21E9
:103D0800556F55BF91EF1EF0555109E1170E545DDF
:103D1800D8A091EF1EF093EF1EF09DEF1EF046C164
:103D280046F147C147F148C148F149C149F161EF3E
:103D38001FF055BFA2EF1EF0A4EF1EF015EF1FF005
:103D480054C14AF1FF0E4B6FFF0E4C6F7F0E4D6F43
:103D5800000E4E6F4A67B3EF1EF0BBEF1EF04E35F4
:103D68004E334D334C334B334A2FAEEF1EF04BC11D
:103D780050F14CC151F14DC152F14EC153F1010105
:103D8800505156154A6F515157154B6F525158158E
:103D98004C6F535159154D6F4A514B114C114D11E0
:103DA800D8A4D9EF1EF0DBEF1EF0DDEF1EF093EF85
:103DB8001EF056C14AF157C14BF158C14CF159C1D7
:103DC8004DF1200EEDEF1EF0D8904D334C334B33B0
:103DD8004A33E82EE8EF1EF04A514B114C114D11B1
:103DE800D8B4F9EF1EF0FBEF1EF003EF1FF05051AF
:103DF8005627515157235251582353515923501D77
:103E08004A6F511D4B6F521D4C6F531D4D6F4A51D8
:103E180056174B5157174C5158174D51591759EFC1
:103E28001FF056C14AF157C14BF158C14CF159C165
:103E38004DF1200E25EF1FF0D8904D334C334B3306
:103E48004A33E82E20EF1FF04A514B114C114D1107
:103E5800D8A431EF1FF033EF1FF03DEF1FF0000E35
:103E6800566F000E576F000E586F000E596F59EFBE
:103E78001FF0D89056354A6F57354B6F58354C6FF1
:103E880059354D6F4A514B114C114D11D8B44FEF64
:103E98001FF051EF1FF059EF1FF0000E566F000E84
:103EA800576F800E586FBF0E596F56C146F157C1F4
:103EB80047F158C148F159C149F11200D5C051F034
:103EC800D6C052F0D7C053F0D8C054F041C051F01A
:103ED80042C052F043C053F044C054F0810E456EC6
:103EE800FF0E466E51C047F052C048F053C049F02B
:103EF80054C04AF0180E86EF1FF0D8904A32493263
:103F080048324732E82E81EF1FF0475045244F6E64
:103F1800000E4620506E50BE9BEF1FF0505009E136
:103F2800170E4F5CD8A09BEF1FF09DEF1FF0A7EF77
:103F38001FF041C041F042C042F043C043F044C0CA
:103F480044F06AEF20F050BEACEF1FF0AEEF1FF068
:103F58001EEF20F04FC045F0FF0E466EFF0E476E75
:103F68007F0E486E000E496E4566BDEF1FF0C5EF27
:103F78001FF049344932483247324632452EB8EFAD
:103F88001FF046C04BF047C04CF048C04DF049C048
:103F98004EF04B505114456E4C505214466E4D50D5
:103FA8005314476E4E505414486E455046104710EF
:103FB8004810D8A4E2EF1FF0E4EF1FF0E6EF1FF07F
:103FC8009DEF1FF051C045F052C046F053C047F076
:103FD80054C048F0200EF6EF1FF0D8904832473210
:103FE80046324532E82EF1EF1FF045504610471093
:103FF8004810D8B402EF20F004EF20F00CEF20F0C6
:104008004B5051264C5052224D5053224E50542260
:104018004B1C456E4C1C466E4D1C476E4E1C486E24
:10402800455051164650521647505316485054168C
:1040380062EF20F051C045F052C046F053C047F03F
:1040480054C048F0200E2EEF20F0D8904832473266
:1040580046324532E82E29EF20F0455046104710E9
:104068004810D8A43AEF20F03CEF20F046EF20F0BB
:10407800000E516E000E526E000E536E000E546EFE
:1040880062EF20F0D8905134456E5234466E533466
:10409800476E5434486E4550461047104810D8B4FF
:1040A80058EF20F05AEF20F062EF20F0000E516E2A
:1040B800000E526E800E536EBF0E546E51C041F00A
:1040C80052C042F053C043F054C044F01200010102
:1040D8000E6F01010E51D8B474EF20F076EF20F086
:1040E80098EF20F009BF7DEF20F07BEF20F098EFEC
:1040F80020F006C10AF107C10BF108C10CF109C192
:104108000DF10A1F0B1F0C1F0D1F0A2B000E0B238E
:104118000C230D230AC110F10BC111F10CC112F1CE
:104128000DC113F1A0EF20F006C110F107C111F184
:1041380008C112F109C113F106510711081109113B
:10414800D8A4A9EF20F0ABEF20F0B5EF20F0000ED7
:10415800066F000E076F000E086F000E096F46EF1E
:1041680021F0960E0F6FBFEF20F00F2BD89013336E
:10417800123311331033000E10150A6F000E11158B
:104188000B6F000E12150C6FFE0E13150D6F0A51F2
:104198000B110C110D11D8A4D4EF20F0D6EF20F09C
:1041A800B9EF20F0E4EF20F00F2B010E1027000EDE
:1041B800112312231323D8901333123311331033DE
:1041C800000E10150A6F000E11150B6F000E121558
:1041D8000C6FFF0E13150D6F0A510B110C110D11F9
:1041E800D8A4F9EF20F0FBEF20F0D8EF20F003EF90
:1041F80021F00F07D890103711371237133712BF35
:1042080008EF21F00AEF21F012EF21F0020E0F6102
:1042180010EF21F012EF21F0FDEF20F00FB117EFB2
:1042280021F019EF21F01AEF21F0129FD8900F33E7
:104238000FC10AF10B6B0C6B0D6B0AC10DF10C6B06
:104248000B6B0A6B0A5110130B5111130C511213FB
:104258000D5113130E51D8B434EF21F036EF21F07D
:104268003EEF21F009BF3DEF21F03BEF21F03EEF9B
:1042780021F0138F10C106F111C107F112C108F125
:1042880013C109F11200096E0950D8B44EEF21F09C
:1042980050EF21F072EF21F004BE57EF21F055EFF7
:1042A80021F072EF21F001C005F002C006F003C052
:1042B80007F004C008F0051E061E071E081E052A82
:1042C800000E06220722082205C00BF006C00CF0DB
:1042D80007C00DF008C00EF07AEF21F001C00BF016
:1042E80002C00CF003C00DF004C00EF00150021023
:1042F80003100410D8A483EF21F085EF21F08FEF8D
:1043080021F0000E016E000E026E000E036E000E0C
:10431800046E20EF22F0960E0A6E99EF21F00A2A19
:10432800D8900E320D320C320B32000E0B14056E83
:10433800000E0C14066E000E0D14076EFE0E0E1401
:10434800086E0550061007100810D8A4AEEF21F02B
:10435800B0EF21F093EF21F0BEEF21F00A2A010E11
:104368000B26000E0C220D220E22D8900E320D3292
:104378000C320B32000E0B14056E000E0C14066E78
:10438800000E0D14076EFF0E0E14086E0550061071
:1043980007100810D8A4D3EF21F0D5EF21F0B2EF21
:1043A80021F0DDEF21F00A06D8900B360C360D36D9
:1043B8000E360DBEE2EF21F0E4EF21F0ECEF21F034
:1043C800020E0A60EAEF21F0ECEF21F0D7EF21F0BE
:1043D8000AB0F1EF21F0F3EF21F0F4EF21F00D9E98
:1043E800D8900A320AC005F0066A076A086A05C04A
:1043F80008F0076A066A056A05500B1206500C1287
:1044080007500D1208500E120950D8B40EEF22F0C2
:1044180010EF22F018EF22F004BE17EF22F015EF8C
:1044280022F018EF22F00E8E0BC001F00CC002F043
:104438000DC003F00EC004F01200040E0001D46F8A
:10444800400ED36F260EE82EFED7D32FFCD7D42FDD
:10445800FAD700000001EB05D8A435EF22F037EFBA
:1044680022F03BEF22F0040EEB6FBBEF22F0040EBC
:10447800EB19D8A442EF22F044EF22F048EF22F0E3
:10448800050EEB6FBBEF22F0050EEB19D8A44FEF2A
:1044980022F051EF22F055EF22F0060EEB6FBBEF42
:1044A80022F0060EEB19D8A45CEF22F05EEF22F0A2
:1044B80062EF22F0070EEB6FBBEF22F0070EEB194D
:1044C800D8A469EF22F06BEF22F06FEF22F0080E0C
:1044D800EB6FBBEF22F0080EEB19D8A476EF22F0B1
:1044E80078EF22F07CEF22F0090EEB6FBBEF22F0A1
:1044F800090EEB19D8A483EF22F085EF22F089EF9B
:1045080022F00A0EEB6FBBEF22F00A0EEB19D8A4CB
:1045180090EF22F092EF22F096EF22F00B0EEB6F65
:10452800BBEF22F00B0EEB19D8A49DEF22F09FEF02
:1045380022F0A3EF22F00C0EEB6FBBEF22F00C0E73
:10454800EB19D8A4AAEF22F0ACEF22F0AFEF22F0DB
:10455800EB6BBBEF22F0EB51D8A4B5EF22F0B7EF2D
:1045680022F0BBEF22F0020EEB6FBBEF22F0BEECA5
:1045780019F01200010152355335596F5951D8A419
:10458800C8EF22F0CAEF22F0D4EF22F0000E506FED
:10459800000E516F000E526F000E536F41EF23F063
:1045A80050C154F151C155F152C156F153C157F19F
:1045B800200EE4EF22F0D890573356335533543356
:1045C800E82EDFEF22F05451586F528FFF0E50172C
:1045D800FF0E5117FF0E5217000E5317960E595F14
:1045E80059BFFBEF22F0F9EF22F011EF23F05951F8
:1045F800800A970FD8B003EF23F005EF23F007EFF9
:1046080023F0CAEF22F0D89053335233513350334A
:10461800593F07EF23F029EF23F01F0E596517EFD5
:1046280023F019EF23F021EF23F0CAEF22F0D890FE
:10463800503751375237533759075951D8A427EFB4
:1046480023F029EF23F01BEF23F05851D8B42FEFB4
:1046580023F031EF23F039EF23F0531F521F511F7E
:10466800506D000E51235223532350C150F151C1B4
:1046780051F152C152F153C153F11200000E010120
:104688002D15356F000E2E15366F800E2F15376FCE
:104698007F0E3015386F3551361137113811D8A4BF
:1046A80058EF23F05AEF23F062EF23F0000E2D6F3E
:1046B800000E2E6F000E2F6F000E306F000E31159A
:1046C800356F000E3215366F800E3315376F7F0E3B
:1046D8003415386F3551361137113811D8A477EFA2
:1046E80023F079EF23F081EF23F0000E316F000EF5
:1046F800326F000E336F000E346F30AF86EF23F049
:1047080088EF23F091EF23F02D6D2E1FD8B02E2BBC
:104718002F1FD8B02F2B800E305734AF96EF23F0D1
:1047280098EF23F0A1EF23F0316D321FD8B0322B70
:10473800331FD8B0332B800E3457000E2D1B000EBC
:104748002E1B000E2F1B800E301B000E311B000E7F
:10475800321B000E331B800E341B31512D5D32513C
:104768002E5933512F5934513059D8B0BEEF23F058
:10477800C0EF23F0C3EF23F0D890C4EF23F0D88024
:1047880012004D344E34546E5450D8A4CEEF23F05A
:10479800D0EF23F0DAEF23F0000E4B6E000E4C6ED4
:1047A800000E4D6E000E4E6E47EF24F04BC04FF0DA
:1047B8004CC050F04DC051F04EC052F0200EEAEF00
:1047C80023F0D8905232513250324F32E82EE5EF72
:1047D80023F04F50536E4D8EFF0E4B16FF0E4C16A6
:1047E800FF0E4D16000E4E16960E545E54BE01EF87
:1047F80024F0FFEF23F017EF24F05450800A970FAE
:10480800D8B009EF24F00BEF24F00DEF24F0D0EF2F
:1048180023F0D8904E324D324C324B32543E0DEF8D
:1048280024F02FEF24F01F0E54641DEF24F01FEF27
:1048380024F027EF24F0D0EF23F0D8904B364C36F5
:104848004D364E3654065450D8A42DEF24F02FEF91
:1048580024F021EF24F05350D8B435EF24F037EF8B
:1048680024F03FEF24F04E1E4D1E4C1E4B6C000EE4
:104878004C224D224E224BC04BF04CC04CF04DC048
:104888004DF04EC04EF01200000E2814306E000E8F
:104898002914316E800E2A14326E7F0E2B14336E5B
:1048A8003050311032103310D8A45DEF24F05FEF90
:1048B80024F067EF24F0000E286E000E296E000E1B
:1048C8002A6E000E2B6E000E2C14306E000E2D1466
:1048D800316E800E2E14326E7F0E2F14336E3050D0
:1048E800311032103310D8A47CEF24F07EEF24F07E
:1048F80086EF24F0000E2C6E000E2D6E000E2E6E2C
:10490800000E2F6E2BAE8BEF24F08DEF24F096EF78
:1049180024F0286C291ED8B0292A2A1ED8B02A2AA1
:10492800800E2B562FAE9BEF24F09DEF24F0A6EFC0
:1049380024F02C6C2D1ED8B02D2A2E1ED8B02E2A6D
:10494800800E2F56000E281A000E291A000E2A1A59
:10495800800E2B1A000E2C1A000E2D1A000E2E1A7D
:10496800800E2F1A2C50285C2D5029582E502A586A
:104978002F502B58D8B0C3EF24F0C5EF24F0C8EF60
:1049880024F0D890C9EF24F0D8801200D9C010F1D3
:10499800DAC011F1DBC012F1DCC013F106C110F16D
:1049A80007C111F108C112F109C113F110C10AF1CF
:1049B80011C10BF112C10CF113C10DF1180EEBEF7F
:1049C80024F00101D8900D330C330B330A33E82E51
:1049D800E5EF24F00A510E6F0F6B0E510F11D8A49A
:1049E800F8EF24F0FAEF24F01AEF25F0D8901035FC
:1049F8000A6F11350B6F12350C6F13350D6F0A5195
:104A08000B110C110D11D8A40CEF25F00EEF25F0A9
:104A180014EF25F0000E076F020E066F49EF25F020
:104A2800000E076F030E066F49EF25F00E290F11D0
:104A3800D8A421EF25F023EF25F045EF25F010C18C
:104A48000AF111C10BF112C10CF113C10DF1090EDC
:104A5800D8900A370B370C370D37E82E2CEF25F096
:104A68000A510B110C110D11D8B43DEF25F040EF90
:104A780025F0010E41EF25F0000E066F076B49EF98
:104A880025F0000E076F040E066F1200D9C00BF058
:104A9800DAC00CF0DBC00DF0DCC00EF001C00BF08A
:104AA80002C00CF003C00DF004C00EF00BC005F0FE
:104AB8000CC006F00DC007F00EC008F0180E6AEF23
:104AC80025F0D8900832073206320532E82E65EF15
:104AD80025F00550096E0A6A09500A10D8A477EF24
:104AE80025F079EF25F099EF25F0D8900B34056E75
:104AF8000C34066E0D34076E0E34086E0550061021
:104B080007100810D8A48BEF25F08DEF25F093EF50
:104B180025F0000E026E020E016EC8EF25F0000EA1
:104B2800026E030E016EC8EF25F009280A10D8A4FA
:104B3800A0EF25F0A2EF25F0C4EF25F00BC005F09B
:104B48000CC006F00DC007F00EC008F0090ED89092
:104B58000536063607360836E82EABEF25F0055041
:104B6800061007100810D8B4BCEF25F0BFEF25F0E9
:104B7800010EC0EF25F0000E016E026AC8EF25F0A5
:104B8800000E026E040E016E1200000E01010E6F7F
:104B9800000E0D6F60001BF4D9FF60001FF4DAFFF0
:104BA8006F007BFFF6FF6F0077FFF7FFF86A0800DA
:104BB800F5502A0AD8A4E3EF25F0E5EF25F026EF13
:104BC80026F060001BF4D9FF60001FF4DAFFDE2A2C
:104BD800000EDD22600023F4D9FF600027F4DAFF1D
:104BE8006F007CFF0AF1020EDE266F007CFF0BF1DE
:104BF800000EDD2260002BF4D9FF60002FF4DAFFED
:104C08006F0078FF0DF16F0074FF0EF13FEF26F093
:104C18000A0E0D036F00CCFF0AF16F00D0FF0BF1F5
:104C28000E03F3500B270C510A250D6F000E0B21B4
:104C38000E6F60001BF4D9FF60001FF4DAFFDE2A54
:104C4800000EDD2260001BF4D9FF60001FF4DAFFBC
:104C58006F007BFFF6FF6F0077FFF7FFF86A080029
:104C6800F550D00F0C6F090E0C653DEF26F03FEFA5
:104C780026F00CEF26F00DC106F10EC107F1120067
:104C8800000E096E000E086E600007F0D9FF600084
:104C98000BF0DAFF6F007BFFF6FF6F0077FFF7FF7F
:104CA800F86A0800F5502A0AD8A45DEF26F05FEFED
:104CB80026F0A0EF26F0600007F0D9FF60000BF0A7
:104CC800DAFFDE2A000EDD2260000FF0D9FF600057
:104CD80013F0DAFF6F007CFF05F0020EDE266F008E
:104CE8007CFF06F0000EDD22600017F0D9FF60009F
:104CF8001BF0DAFF6F0078FF08F06F0074FF09F00F
:104D0800B9EF26F00A0E08026F00CCFF05F06F001D
:104D1800D0FF06F00902F350062607500524086E56
:104D2800000E0620096E600007F0D9FF60000BF046
:104D3800DAFFDE2A000EDD22600007F0D9FF6000EE
:104D48000BF0DAFF6F007BFFF6FF6F0077FFF7FFCE
:104D5800F86A0800F550D00F076E090E0764B7EF20
:104D680026F0B9EF26F086EF26F008C001F009C05A
:104D780002F012006F00E8FF00F16F00ECFF01F194
:104D88006F00D8FF02F16F00DCFF03F16F00E0FF56
:104D980004F16F00D4FF05F1390190AFD6EF26F08A
:104DA800D8EF26F0E3EF26F0A0AFDDEF26F0DFEF37
:104DB80026F0E3EF26F031EC31F019EF27F091A55A
:104DC800E8EF26F0EAEF26F0F5EF26F0A1A5EFEFE1
:104DD80026F0F1EF26F0F5EF26F03CEC33F019EF72
:104DE80027F091A7FAEF26F0FCEF26F007EF27F05F
:104DF800A1A701EF27F003EF27F007EF27F039EC21
:104E080033F019EF27F094A10CEF27F00EEF27F0FD
:104E180019EF27F0A4A113EF27F015EF27F019EFEA
:104E280027F012EC31F019EF27F0600017F4F5FFC6
:104E3800600013F4F8FF60000FF4F7FF60000BF454
:104E4800F6FF600007F4FBFF600003F4FAFF1100AF
:104E5800010108510911D8B434EF27F036EF27F0D3
:104E68003FEF27F008510911D8A43DEF27F03FEF95
:104E780027F044EF27F006513FEC33F098EF27F086
:104E880020EE09F00851D9260951DA22DE50DE1049
:104E9800D8B451EF27F053EF27F06EEF27F020EE4C
:104EA80009F00851D9260951DA2210EE02F008510A
:104EB800E1260951E222DE50E65CE650800A0E6FD8
:104EC800DE50800A0E59D8B06CEF27F06EEF27F04D
:104ED80098EF27F020EE02F00851D9260951DA227E
:104EE8006F0078FF0AF16F0074FF0BF1600023F484
:104EF800D9FF600027F4DAFF6F0078FF0CF16F002C
:104F080074FF0DF10A510C25D96E0B510D21DA6E83
:104F180060001BF4DFFF20EE02F00851D92609518A
:104F2800DA22DE2A000EDD22120003500410D8B463
:104F3800A0EF27F0A2EF27F0ABEF27F00350041003
:104F4800D8A4A9EF27F0ABEF27F0B0EF27F0015076
:104F580044EC33F004EF28F020EE09F00350D92692
:104F68000450DA22DE50DE10D8B4BDEF27F0BFEFD0
:104F780027F0DAEF27F020EE09F00350D926045085
:104F8800DA2210EE02F00350E1260450E222DE504D
:104F9800E65CE650800A096EDE50800A0958D8B0EF
:104FA800D8EF27F0DAEF27F004EF28F020EE02F030
:104FB8000350D9260450DA226F0078FF05F06F00FD
:104FC80074FF06F060000FF0D9FF600013F0DAFFFD
:104FD8006F0078FF07F06F0074FF08F00550072492
:104FE800D96E06500820DA6E600007F0DFFF20EE69
:104FF80002F00350D9260450DA22DE2A000EDD2200
:1050080012001B6E1C6A1C6A1D6A1D50030D6F007E
:10501800CCFF17F06F00D0FF18F01C50240D510E74
:10502800F324196E020EF4201A6E17501924D96E43
:1050380018501A20DA6E60006FF0DFFF1D50030D64
:105048006F00CCFF17F06F00D0FF18F01C50240D34
:10505800500EF324196E020EF4201A6E17501924FC
:10506800D96E18501A20DA6E600057F0DFFF1D5015
:10507800030D6F00CCFF17F06F00D0FF18F01C5025
:10508800240D520EF324196E020EF4201A6E1750D6
:105098001924D96E18501A20DA6E60005BF0DFFF11
:1050A8001D2A0B0E1D645BEF28F05DEF28F009EF59
:1050B80028F01C2A0B0E1C6464EF28F066EF28F019
:1050C80008EF28F0CBEC28F0120001010B6B09BFA8
:1050D80072EF28F070EF28F078EF28F0086D091FBC
:1050E800D8B0092B010E0B6F07BF7FEF28F07DEFBB
:1050F80028F085EF28F0066D071FD8B0072B010EA2
:105108000B1B000E0D6F000E0C6F08510911D8B45F
:1051180090EF28F092EF28F0BAEF28F0010E0A6F0E
:105128009AEF28F0D890083709370A2B09AF9FEF74
:1051380028F0A1EF28F096EF28F0D8900C370D371B
:105148000851065D09510759D8A0ADEF28F0AFEF17
:1051580028F0B4EF28F00851065F0951075B0C816D
:10516800D890093308330A2FA1EF28F00B51D8B48F
:10517800C0EF28F0C2EF28F0C6EF28F00C6D0D1F25
:10518800D8B00D2B0CC106F10DC107F11200136A3E
:10519800136A146A1450030D6F00CCFF07F06F00F8
:1051A800D0FF08F01350240D500EF324096E020EA0
:1051B800F4200A6E07500924D96E08500A20DA6EC6
:1051C800DF50046E1450030D6F00CCFF0BF06F001E
:1051D800D0FF0CF01350240D520EF3240D6E020E66
:1051E800F4200E6E0B500D24D96E0C500E20DA6E82
:1051F800DF50056E1450030D6F00CCFF0FF06F00E9
:10520800D0FF10F01350240D510EF324116E020E2E
:10521800F420126E0F501124D96E10501220DA6E3D
:10522800DF50D1EC32F0142A0B0E14641EEF29F073
:1052380020EF29F0CEEF28F0132A0B0E136427EF86
:1052480029F029EF29F0CDEF28F0F2EC32F0120026
:10525800066A04BE34EF29F032EF29F03AEF29F05C
:10526800036C041ED8B0042A010E066E02BE41EF7C
:1052780029F03FEF29F047EF29F0016C021ED8B062
:10528800022A010E061A000E086E000E076E035061
:105298000410D8B452EF29F054EF29F07CEF29F02C
:1052A800010E056E5CEF29F0D89003360436052A06
:1052B80004AE61EF29F063EF29F058EF29F0D89098
:1052C800073608360350015C04500258D8A06FEF27
:1052D80029F071EF29F076EF29F00350015E0450B0
:1052E800025A0780D89004320332052E63EF29F062
:1052F8000650D8B482EF29F084EF29F088EF29F01E
:10530800076C081ED8B0082A07C001F008C002F0D0
:105318001200196A196A1A6A1A50030D6F00CCFF35
:1053280015F06F00D0FF16F01950240D510EF3241C
:10533800176E020EF420186E15501724D96E1650E9
:105348001820DA6EDF6A1A50030D6F00CCFF15F0D3
:105358006F00D0FF16F01950240D500EF324176E6D
:10536800020EF420186E15501724D96E1650182006
:10537800DA6EDF6A1A50030D6F00CCFF15F06F006C
:10538800D0FF16F01950240D520EF324176E020E9A
:10539800F420186E15501724D96E16501820DA6E9E
:1053A800DF6A1A2A0B0E1A64DCEF29F0DEEF29F007
:1053B80090EF29F0192A0B0E1964E5EF29F0E7EFB1
:1053C80029F08FEF29F0CBEC28F0120001010B6BCC
:1053D80007BFF3EF29F0F1EF29F0F9EF29F0066D97
:1053E800071FD8B0072B010E0B6F09BF00EF2AF07B
:1053F800FEEF29F004EF2AF0086D091FD8B0092B39
:1054080008510911D8B40BEF2AF00DEF2AF031EF4B
:105418002AF0010E0A6F15EF2AF0D89008370937DD
:105428000A2B09AF1AEF2AF01CEF2AF011EF2AF025
:105438000851065D09510759D8A025EF2AF027EF32
:105448002AF02BEF2AF00851065F0951075BD89024
:10545800093308330A2F1CEF2AF00B51D8B437EF61
:105468002AF039EF2AF03DEF2AF0066D071FD8B071
:10547800072B06C106F107C107F11200066A02BE32
:105488004AEF2AF048EF2AF050EF2AF0016C021E8A
:10549800D8B0022A010E066E04BE57EF2AF055EF67
:1054A8002AF05BEF2AF0036C041ED8B0042A0350DC
:1054B8000410D8B462EF2AF064EF2AF088EF2AF0DB
:1054C800010E056E6CEF2AF0D89003360436052AD3
:1054D80004AE71EF2AF073EF2AF068EF2AF0035058
:1054E800015C04500258D8A07CEF2AF07EEF2AF025
:1054F80082EF2AF00350015E0450025AD890043219
:105508000332052E73EF2AF00650D8B48EEF2AF036
:1055180090EF2AF094EF2AF0016C021ED8B0022A0C
:1055280001C001F002C002F01200000E01010615D0
:105538000E6F000E07150F6F800E0815106F7F0E87
:105548000915116F0E510F1110111111D8A4AFEFD9
:105558002AF0B1EF2AF0B9EF2AF0000E066F000E1C
:10556800076F000E086F000E096F000E0A150E6F08
:10557800000E0B150F6F800E0C15106F7F0E0D159A
:10558800116F0E510F1110111111D8A4CEEF2AF07E
:10559800D0EF2AF0D8EF2AF0000E0A6F000E0B6F3A
:1055A800000E0C6F000E0D6F0A5106190FE10B511A
:1055B80007190CE10C51081909E10D510919D8B462
:1055C800E8EF2AF0EAEF2AF0EDEF2AF0D890EEEFB4
:1055D8002AF0D8801200030E0001EB65F6EF2AF0DE
:1055E800F8EF2AF02CEF2BF00C0EEB61FEEF2AF00F
:1055F80000EF2BF02CEF2BF0EB51030D6F00CCFFDD
:105608001EF06F00D0FF1FF0F40E1E24206EFF0E58
:105618001F20216EED0E2024F66EFE0E2120F76E5F
:10562800F86A000EF82209006F00D4FF22F0090082
:105638006F00D4FF23F00A006F00D4FF24F022C0CB
:1056480015F024C016F0235005EC28F044EF2BF099
:105658000C0EEB19D8A433EF2BF035EF2BF039EF04
:105668002BF08DEC29F044EF2BF0020EEB19D8A4A7
:1056780040EF2BF042EF2BF044EF2BF00D0EEB6FC9
:105688001200000E0114096E000E02140A6E800E3C
:1056980003140B6E7F0E04140C6E09500A100B10C5
:1056A8000C10D8A45AEF2BF05CEF2BF064EF2BF022
:1056B800000E016E000E026E000E036E000E046EE8
:1056C800000E0514096E000E06140A6E800E0714EB
:1056D8000B6E7F0E08140C6E09500A100B100C107C
:1056E800D8A479EF2BF07BEF2BF083EF2BF0000E93
:1056F800056E000E066E000E076E000E086E055051
:1057080001180FE1065002180CE10750031809E1CF
:1057180008500418D8B493EF2BF095EF2BF098EFBE
:105728002BF0D89099EF2BF0D8801200040E05ECDE
:1057380033F033EC33F06EEC32F006C14EF107C1B2
:105748004FF1000E0101186F000E196FA00E1A6FAD
:10575800400E1B6F4EC106F14FC107F1000E07BF87
:10576800FF0E086F096F010E6BEC20F006C114F1F3
:1057780007C115F108C116F109C117F1FCEC0FF0CA
:1057880014C12DF115C12EF116C12FF117C130F139
:10579800000E0101316FF00E326F7F0E336F450E30
:1057A800346F2DEC16F02DC14AF12EC14BF12FC1EB
:1057B8004CF130C14DF14AC146F14BC147F14CC1E2
:1057C80048F14DC149F11200040E2EEC33F036ECCD
:1057D80033F0DCEC32F001C049F002C04AF0000EB0
:1057E800136E000E146EA00E156E400E166E49C094
:1057F80001F04AC002F0000E02BEFF0E036E046EF6
:10580800010E47EC21F001C00FF002C010F003C0F8
:1058180011F004C012F022EC12F00FC028F010C0F2
:1058280029F011C02AF012C02BF0000E2C6EF00ED9
:105838002D6E7F0E2E6E450E2F6EF6EC17F028C0DB
:1058480045F029C046F02AC047F02BC048F045C0B3
:1058580041F046C042F047C043F048C044F012004F
:10586800BA6ABB6ABC6A3A01426B526B626BFE0E43
:10587800C26EDC0EC36EC46AF00E406FDC0E506F51
:10588800606B416B516B616B816B436953696369F1
:10589800446954696469080E846F5A6B5B6B6A6B60
:1058A8006B6B0E0E456F466B476B556B566B576BA4
:1058B800656B666B676B856B866B876B860E010104
:1058C800066F660E076F1AEC33F0840E0101066F3F
:1058D800660E076F15EC33F0820E0101066F660E37
:1058E800076F10EC33F03901908F120096EF2CF00F
:1058F800600023F4F6FF600027F4F7FF000EF86E4F
:105908000F0EF76403D00800F55007D06F00DBFFD7
:10591800E9FF6F00DFFFEAFFEF5026EC32F00101EC
:10592800084B092B600023F4F6FF600027F4F7FF0B
:10593800000EF86E0F0EF76403D00800F55007D07C
:105948006F00DBFFE9FF6F00DFFFEAFFEF500009A0
:10595800D8A4B1EF2CF0B3EF2CF07CEF2CF01200B0
:1059680001011BBFBCEF2CF0BAEF2CF0C0EF2CF0FC
:10597800000E1B6F000E1A6F000E1E6F000E1D6FBB
:10598800D3EF2CF0000E076F200E066F16C108F13A
:1059980017C109F12CEC27F001011D4B1E2B1A51E0
:1059A8001D5D1E51800A1C6F1B51800A1C59D8A00E
:1059B800E0EF2CF0E2EF2CF0C6EF2CF018C10FF15D
:1059C80019C110F116C111F117C112F1BCEC2FF079
:1059D800120008EF2DF060000FF0F6FF600013F0E2
:1059E800F7FF000EF86E0F0EF76403D00800F550AD
:1059F80007D06F00DBFFE9FF6F00DFFFEAFFEF5022
:105A08007EEC32F0034A042A60000FF0F6FF6000D3
:105A180013F0F7FF000EF86E0F0EF76403D00800BE
:105A2800F55007D06F00DBFFE9FF6F00DFFFEAFFEB
:105A3800EF500009D8A423EF2DF025EF2DF0EFEF5C
:105A48002CF0120016BE2DEF2DF02BEF2DF031EFBC
:105A58002DF0000E166E000E156E000E196E000E5B
:105A6800186E43EF2DF0000E026E200E016E11C06D
:105A780003F012C004F099EC27F0184A192A1550BF
:105A8800185C1950800A176E1650800A1758D8A04B
:105A980050EF2DF052EF2DF037EF2DF013C00AF034
:105AA80014C00BF011C00CF012C00DF08FEC30F0E8
:105AB800120001010D6F050EF66EFF0EF76E000E57
:105AC800F86E09006F00D4FF09F109006F00D4FFD8
:105AD8000AF109006F00D4FF0BF10A006F00D4FF30
